:020000040800F2
:10000000880F0020F1010008A5300008FD2C000831
:10001000A130000881030008A5410008000000008D
:100020000000000000000000000000001531000882
:100030006904000800000000A93000081931000818
:100040000B0200080B0200080B0200080B0200085C
:100050000B0200080B0200080B0200080B0200084C
:100060000B0200080B0200080B020008B103000895
:100070000B0200080B0200080B0200080B0200082C
:100080000B0200080B0200080B0200080B0200081C
:100090000B0200080B0200080B0200080B0200080C
:1000A0000B0200080B0200080B0200080B020008FC
:1000B0000B0200080B0200080B0200080B020008EC
:1000C0000B0200080B0200080B0200080B020008DC
:1000D0000B020008854100080B020008954100084A
:1000E0007F0400080B0200080B0200080B02000846
:1000F0000B0200080B0200080B0200080B020008AC
:10010000000000000B020008000000000B020008C5
:100110000B0200080B020008B53100080B020008B2
:100120000B0200080B0200080B0200080B0200087B
:100130000B02000800000000000000000B02000895
:100140000B0200080B020008000000000000000085
:10015000000000000000000000000000000000009F
:100160000000000000000000000000000B0200087A
:100170000B0200080B0200080B0200080B0200082B
:100180000B0200080B020008000000000000000045
:1001900000000000000000000B0200080B02000835
:1001A00000000000000000000B0200080B02000825
:1001B0000B0200080B0200080B0200080B020008EB
:1001C0000B0200080B0200080B0200080B020008DB
:1001D0000B0200080B020008DFF810D000F0A0F8B6
:1001E000004800475D4D0008AFF30080880F0020F5
:1001F0000648804706480047FEE7FEE7FEE7FEE7C1
:10020000FEE7FEE7FEE7FEE7FEE7FEE7A1310008B6
:10021000D90100082DE9F05F0546002092469B4673
:1002200088460646814640241BE02846414647460C
:10023000224600F065F853465A46C01A914110D341
:1002400011461846224600F04CF82D1A67EB0108BB
:100250004F4622460120002100F043F817EB000929
:100260004E41201EA4F10104DFDC484631462A46F7
:100270004346BDE8F09F40EA01039B0703D009E035
:1002800008C9121F08C0042AFAD203E011F8013B82
:1002900000F8013B521EF9D27047D2B201E000F8DB
:1002A000012B491EFBD270470022F6E710B513461A
:1002B0000A4604461946FFF7F0FF204610BD30B548
:1002C00005462A460B4612F8010B13F8014B08B1FC
:1002D000A042F8D01CB1002802D06D1CF1E72846DE
:1002E00030BD202A04DB203A00FA02F100207047DA
:1002F0009140C2F1200320FA03F319439040704764
:10030000202A04DB203A21FA02F00021704721FA6A
:1003100002F3D040C2F120029140084319467047D1
:10032000064C074D06E0E06840F0010394E8070042
:1003300098471034AC42F6D3FFF752FF6C520008D6
:100340008C52000810B50446022C06D10848094911
:10035000086002200849087005E00848054908605F
:1003600004200549087000F0B1FC002010BD000019
:10037000003004080400002008000020006000088D
:1003800000BFFEE7074800680749884203D00748D6
:100390000068401C18B9002002490860704701201D
:1003A000FCE70000007F0120EFBEADDE006000082A
:1003B00010B5024800F030FA10BD0000880200209D
:1003C00030B50E4D0468AC4201D20D4901E00C4934
:1003D00020310B460478083C1425B4FBF5F2446C3C
:1003E000A40803EB84048464054C8034C46402F0E4
:1003F0001F050124AC40046530BD00000804024024
:100400000008024001794A1E064B03EB8202426556
:10041000044A403282654A1E02F01F0301229A40BC
:10042000C26570470009024030B5D0E913546C60D2
:10043000446D14B1D0E916546C6090F8444004F057
:100440001F050124AC40056C6C600468636084681F
:10045000102C04D10468A2600468E16003E0046821
:10046000A1600468E26030BD7047542242439108A5
:1004700000BF00BF0A1EA1F10101FAD1704710B5FB
:100480004FF4005000F0D2FC10BD72B600BFFEE782
:100490001B49087F012801D0032816D11949096892
:1004A00021F40071174A116000BF1146096841F438
:1004B000006111601146096821F40061116000BFFC
:1004C0001146096841F400711160022801D0032827
:1004D00011D100BF0B49096841F48051094A1160EC
:1004E0001146096821F48051116000BF1146096866
:1004F00041F4806111600021014A117770470000CA
:100500004C0000200020024000F0010129B1064902
:10051000496941F00401044A51610349496941F4C0
:100520008031014A5161704700200240084A5269F7
:1005300060F3CA02064B5A611A46526942F002023F
:100540005A611A46526942F480325A61704700007B
:100550000020024010B50849496941F00101064CEC
:100560006161026000BF00BF00BFBFF36F8F00BFBB
:1005700000BF00BF436010BD00200240F0B502463E
:10058000402314460D460C4E766946F480260A4FE9
:100590007E6100BFEFF31086304672B600BF2E6852
:1005A0002660241D2D1D5E1EF3B2002BF7D100BF67
:1005B00080F3108800BFF0BD0020024070B50546F2
:1005C00000F02EFD064606E000F02AFD801BA84242
:1005D00001D9032070BD1A48006900F48030B0F5DD
:1005E000803FF1D0164800694CF2FA3100EA01046C
:1005F000CCB11448406820431249486000BF04F061
:10060000404030B10E48806904F0404108430C4935
:10061000886124F0404018B124F040400849086146
:1006200000BF0120D6E70648006900F0010020B1B4
:1006300000BF01200249086100BF0020CAE7000096
:10064000002002404C0000200146A1F10060C00AD9
:1006500070470146002091F82520022A03D0042289
:10066000CA63012027E00A68126822F00E020B68B4
:100670001A608A6C126822F480728B6C1A600A68A5
:10068000126822F001020B681A6091F8442002F00F
:100690001F0301229A400B6C5A60D1E913325A6051
:1006A0004A6D42B14A6D126822F480724B6D1A6035
:1006B000D1E916325A60012281F8252000BF0022BC
:1006C00081F8242000BF704770B50446002594F8D7
:1006D000250002280BD00420E063012084F82500C7
:1006E00000BF002084F8240000BF012534E020680A
:1006F000006820F00E00216808602068006820F083
:10070000010021680860A06C006820F48070A16C72
:10071000086094F8440000F01F0101208840216C1B
:100720004860D4E913104860606D40B1606D0068A6
:1007300020F48070616D0860D4E9161048600120D3
:1007400084F8250000BF002084F8240000BFA06BBF
:1007500010B12046A16B8847284670BD10B50446ED
:100760000CB9012010BD2068006820F0010021684C
:1007700008602749206888420BD226492068401A21
:100780001421B0FBF1F08000606422480838206436
:100790000AE01F492068401A1421B0FBF1F08000E4
:1007A00060641B480838206400202168086094F8C1
:1007B000440000F01F0101208840216C4860204661
:1007C000FFF7FEFD0020A16C0860D4E9131048601B
:1007D000606858B16068042808D82046FFF712FE08
:1007E0000020616D0860D4E9161048600020606543
:1007F000A065E065E06220636063A063E06384F865
:10080000250000BF84F8240000BF00BFAAE7000055
:10081000080402400800024070B50446206C0568D8
:100820002068066894F8440000F01F010420884006
:100830002840E0B106F00400C8B12068006800F06C
:10084000200028B92068006820F0040021680860B2
:1008500094F8440000F01F0104208840216C486097
:10086000206B002856D02046216B884752E094F830
:10087000440000F01F0102208840284018B306F011
:10088000020000B32068006800F0200040B9206832
:10089000006820F00A0021680860012084F8250023
:1008A00094F8440000F01F0102208840216C486049
:1008B00000BF002084F8240000BFE06A50B3204647
:1008C000E16A884726E094F8440000F01F01082000
:1008D00088402840F0B106F00800D8B120680068D0
:1008E00020F00E002168086094F8440000F01F0119
:1008F00001208840216C48600120E06384F82500D5
:1009000000BF002084F8240000BF606B10B12046B7
:10091000616B884770BD000070B504460CB90120BA
:1009200070BD2F49206888420BD22E492068401A9A
:100930001421B0FBF1F0800060642A48083820647C
:100940000AE027492068401A1421B0FBF1F080002A
:100950006064234808382064022084F82500206859
:10096000056847F6F0708543D4E902010843216920
:10097000084361690843A1690843E1690843216AA2
:1009800008430543206805602046FFF719FDA0686D
:10099000B0F5804F01D1002060602079A16C086023
:1009A000D4E913104860606860B16068042809D811
:1009B0002046FFF727FD0020616D0860D4E916107E
:1009C000486003E000206065A065E0650020E0630A
:1009D000012084F82500002084F8240000BF9FE750
:1009E00008040240080002402DE9F04104460D468B
:1009F00016461F464FF0000800BF94F82400012857
:100A000002D10220BDE8F081012084F8240000BF5B
:100A100094F8250001283FD1022084F82500002009
:100A2000E0632068006820F00100216808603B4610
:100A3000324629462046FFF7F7FC206B30B120688C
:100A4000006840F00E00216808600BE02068006834
:100A500020F00400216808602068006840F00A0067
:100A600021680860A06C006800F4803028B1A06C98
:100A7000006840F48070A16C0860606D28B1606D02
:100A8000006840F48070616D08602068006840F084
:100A900001002168086006E000BF002084F82400FF
:100AA00000BF4FF002084046ACE7000010B54FF021
:100AB000FF300C49886300208863401E08640020D2
:100AC0000864401E886200208862401EC8620020C0
:100AD000C862401E08630020086300F0EFFA00209F
:100AE00010BD0000001002402DE9F04104460F4601
:100AF00000BF3C480078012802D10220BDE8F08107
:100B000001203849087000BF4FF47A70FFF756FD96
:100B10000646002E5ED1334948603348006800F431
:100B2000007090B13048006800F4806048B12E48F1
:100B3000006820F480602C49086003202949087768
:100B400015E001202749087711E02748006800F4E4
:100B5000806048B12448006820F480602249086021
:100B600002202049087702E000201E49087720680B
:100B700001280ED16068FFF7C7FC4FF47A70FFF7C9
:100B80001DFD06461848406920F0040016494861DA
:100B90001EE04FF0FF303860A56813E0284661681A
:100BA000FFF7C4FC4FF47A70FFF708FD06460E48C5
:100BB000406940F2FA7188430B4948610EB13D60CB
:100BC00005E06D1CD4E902010844A842E6D800BF44
:100BD000FFF75EFC00BF00200249087000BF3046EE
:100BE0008CE700004C000020002002400120064954
:100BF000496941F00041044A51611146496901F0D7
:100C0000004101B100207047002002402DE9F0476B
:100C10000446884615461E464FF0000900BF294885
:100C20000078012802D10220BDE8F0870120254983
:100C3000087000BF4FF47A70FFF7C0FC0746002F22
:100C400038D1204948602048006800F4806048B1ED
:100C50001D48006820F480601B4908600220194983
:100C6000087702E00020174908773CB92A46334646
:100C70004046FFF76FFC4FF001090BE0012C01D05B
:100C8000022C07D129464046FFF778FC022C01D1FF
:100C90004FF480294FF47A70FFF790FC0746B9F1C2
:100CA000000F05D00848406920EA0900064948615C
:100CB000FFF7EEFB00BF00200249087000BF384676
:100CC000B2E700004C00002000200240002008494C
:100CD000496901F0004151B10649054A9160064950
:100CE00091601146496901F0004101B1012070474E
:100CF0000020024023016745AB89EFCDF0B50B46DC
:100D000000217DE001258D4005EA0302002A76D00E
:100D10003E4D8E0855F826408D072E0F0F25B54005
:100D20002C40B0F1904F01D1002519E0384DA84278
:100D300001D1012514E0374DA84201D102250FE071
:100D4000354DA84201D103250AE0344DA84201D116
:100D5000042505E0324DA84201D1052500E0062515
:100D60008E07360FB540A54223D12E4D2D689543F1
:100D70002C4E3560351D2D689543361D3560294D47
:100D80000C352D689543274E0C363560351F2D6880
:100D90009543361F35608D072E0F0F2505FA06F493
:100DA0001A4D8E0855F82650A543184E8F0846F860
:100DB000275005684F000326BE4035430560CE0826
:100DC00000F1200555F826504E07F70E0F26BE40BD
:100DD000B543CF0800F1200646F82750C5684F00FC
:100DE0000326BE40B543C560456801268E40B54325
:100DF000456085684F000326BE40B5438560491CA9
:100E000023FA01F5002D7FF47DAFF0BD080001400D
:100E10000004004800080048000C0048001000488A
:100E200000140048000401407047000010B504465B
:100E300004480068204020B1024804602046FFF7C3
:100E4000F3FF10BD1404014078B502460B460021A3
:100E5000CAE001268E401D6805EA0604002C73D006
:100E60001D7905F00305012D04D01D7905F003055A
:100E7000022D13D190684E000325B540A8434E00C3
:100E8000DD68B54028439060506801258D40A84337
:100E90001D79C5F300158D40284350601D7905F07C
:100EA0000305032D09D0D0684E000325B540A843A3
:100EB0004E009D68B5402843D0601D7905F00305BC
:100EC000022D13D1CE0802F1200555F826004D075A
:100ED000EE0E0F25B540A8434E07F60E1D69B5402E
:100EE0002843CE0802F1200545F8260010684E0080
:100EF0000325B540A8431D7905F003054E00B54014
:100F0000284310605D6805F44035002D6BD000BFAC
:100F1000384D2D6E45F00105364E356635462D6E41
:100F200005F00105009500BF00BF4FEAB6358E08F9
:100F300055F826008D072E0F0F25B540A843B2F1B6
:100F4000904F02D100251AE04DE02B4DAA4201D16D
:100F5000012514E0294DAA4201D102250FE0284DB8
:100F6000AA4201D103250AE0264DAA4201D1042557
:100F700005E0254DAA4201D1052500E006258E0792
:100F8000360FB5402843214D8E0845F82600204DE8
:100F90002868A0435D6805F4801505B120431C4D09
:100FA00028602D1D2868A0435D6805F4001505B173
:100FB0002043174D2D1D2860154D2D1F2868A04377
:100FC0005D6805F4003505B12043114D2D1F2860E3
:100FD0002D1F2868A0435D6805F4803505B12043C6
:100FE0000B4D083D2860491C1D68CD40002D7FF445
:100FF00030AF78BD001002400004004800080048EF
:10100000000C00480010004800140048080001408F
:10101000080401400AB1816100E08162704700006C
:101020000148006870470000400000200348006845
:1010300003490968084401490860704740000020DE
:101040004800002010B50024032000F0A9F800207B
:1010500000F008F808B1012401E000F030F8204663
:1010600010BD000070B50446002511480068D8B1D5
:101070000F4800684FF47A71B1FBF0F00D49096830
:10108000B1FBF0F6304600F0CBFF58B9102C07D278
:1010900000222146501E00F045F80748046004E095
:1010A000012502E0012500E00125284670BD000071
:1010B000480000206C00002044000020704770476A
:1010C00010B501460846002817DB00F01F03012277
:1010D0009A400B4B440943F8242000BF00BF00BFD7
:1010E000BFF34F8F00BF00BF00BF00BF00BF00BFF6
:1010F000BFF36F8F00BF00BF00BF00BF10BD000077
:1011000080E100E001460846002809DB00F01F03EB
:1011100001229A4043099B0003F1E023C3F8002118
:1011200000BF70472DE9F05F80460D46164603F07C
:101130004BF8074639462A46334601F00700C0F10E
:10114000070ABAF1040F02D94FF0040A01E0C0F116
:10115000070AD14600F1040ABAF1070F02D24FF094
:10116000000A01E0A0F1030AD4464FF0010A0AFA8E
:1011700009FAAAF1010A0AEA020A0AFA0CFA4FF07D
:10118000010B0BFA0CFBABF1010B0BEA030B4AEA68
:101190000B042146404603F01FF8BDE8F09F000015
:1011A00000BF00F00702064B19684FF6FF03194015
:1011B000044B0B4343EA0221014B196000BF704707
:1011C0000CED00E00000FA0502468ABB41480068C9
:1011D00000F4C060B0F5806F2BD13E4880300068CD
:1011E00020F480703B4BC3F880001846006820F460
:1011F000C06040F4007018603748006832235843DC
:10120000364BB0FBF3F0411C00E0491E3148406909
:1012100000F48060B0F5806F01D10029F5D12D4830
:10122000406900F48060B0F5806F51D103207047B1
:1012300008E028488030006820F48070254BC3F80F
:10124000800045E0B2F5007F3AD12248006800F402
:10125000C060B0F5806F2AD11E488030006840F42D
:1012600080701C4BC3F880001846006820F4C060F2
:1012700040F4007018601848006832235843174B38
:10128000B0FBF3F0411C00E0491E1248406900F435
:101290008060B0F5806F01D10029F5D10D4840691B
:1012A00000F48060B0F5806F12D10320BFE70948D9
:1012B0008030006840F48070064BC3F8800007E07F
:1012C0000448006820F4C06040F48060014B18605E
:1012D0000020ACE7007000406C00002040420F008E
:1012E0002DE9F84304460026B046206800F40020AB
:1012F000B0F5002F73D1B146F548806D00F08050F5
:1013000078B900BFF248806D40F08050F0498865A0
:101310000846806D00F08050009000BF00BF4FF085
:101320000109EC48006840F48070EA490860FFF762
:1013300077FE074606E0FFF773FEC01B022801D9BF
:10134000032605E0E348006800F480700028F2D02E
:1013500000BF002E46D1DE489030006800F4407592
:10136000CDB1E06CA84216D0D9489030006820F486
:101370004075D748D0F8900040F48030D449C1F887
:1013800090000846D0F8900020F48030C1F890001A
:101390000846C0F8905005F00100A0B1FFF740FEEC
:1013A000074608E0FFF73CFEC01B41F28831884247
:1013B00001D9032606E0C6489030006800F002001C
:1013C0000028EFD000BF5EB9C1489030006820F41B
:1013D0004070E16C0843BE49C1F8900003E00CE0A6
:1013E000B04600E0B046B9F1010F05D1B848806DB4
:1013F00020F08050B649886500BF207800F00100D9
:1014000048B1B3488830006820F0030061680843A1
:10141000AF49C1F88800207800F00200022809D105
:10142000AB488830006820F00C00A1680843A84948
:10143000C1F88800207800F00400042809D1A448ED
:101440008830006820F03000E1680843A049C1F806
:101450008800207800F00800082809D19C488830CE
:10146000006820F0C000216908439949C1F888004C
:10147000207800F01000102809D1954888300068C5
:1014800020F44070616908439149C1F888002078D0
:1014900000F02000202809D18D488830006820F411
:1014A0004060A16908438A49C1F88800207800F0AB
:1014B0004000402809D186488830006820F4405018
:1014C000E16908438249C1F88800207800F0800073
:1014D000802809D17E488830006820F44040216A85
:1014E00008437B49C1F88800208800F48070B0F57B
:1014F000807F09D176488830006820F44030616AE6
:1015000008437349C1F88800208800F40070B0F5E2
:10151000007F09D16E488830006820F44020A16A1D
:1015200008436B49C1F88800208800F48060B0F55A
:10153000806F13D166488830006820F44010E16A5B
:101540000843634988310860E06AB0F5801F05D11F
:101550005F48C06840F480105D49C860208800F48E
:101560000060B0F5006F13D159488830006820F44E
:101570004000216B0843564988310860206BB0F564
:10158000800F05D15248C06840F480105049C860AF
:10159000208800F48050B0F5805F13D14C4888302B
:1015A000006820F04070616B084349498831086049
:1015B000606BB0F1807F05D14548C06840F4801071
:1015C0004349C860208800F40050B0F5005F13D193
:1015D0003F488830006820F04060A16B08433C49D8
:1015E00088310860A06BB0F1006F05D13848C06841
:1015F00040F480103649C860208800F48040B0F57F
:10160000804F13D132488830006820F04060E16B91
:1016100008432F4988310860E06BB0F1006F05D1B5
:101620002B48C06840F480102949C860208800F425
:101630000040B0F5004F13D125488830006820F0F5
:101640004050216C0843224988310860206CB0F179
:10165000805F05D11E48C06840F480301C49C860D6
:10166000206800F48030B0F5803F13D118488830EE
:10167000006820F04040616C0843154988310860DB
:10168000606CB0F1804F05D11148C06840F48030E3
:101690000F49C860206800F48020B0F5802F13D176
:1016A0000B489C30006820F44010A16C08430849A6
:1016B0009C310860A06CB0F5001F05D10448C068DB
:1016C00040F480100249C8604046BDE8F88300003D
:1016D00000100240007000402DE9F04104460D4624
:1016E0004FF0000814B90120BDE8F0817D48006882
:1016F00000F00F00A8420ED27A48006820F00F00D8
:101700002843784908600846006800F00F00A842A6
:1017100001D00120E8E7207800F00100002864D023
:101720006068032823D17048006800F0007008B991
:101730000120D9E701F0BAFC06466C48864237D949
:101740006948806800F0F00030B1207800F00200B5
:1017500002282DD1A06858BB6348806820F0F000B3
:1017600040F08000604988604FF0800820E06068A9
:10177000022806D15C48006800F4003040B901201E
:10178000B2E75948006800F4806008B90120ABE76F
:1017900000F04CF906465548864209D952488068FF
:1017A00020F0F00040F080004F4988604FF0800842
:1017B0004D48806820F00300616808434A4988600A
:1017C000FFF72EFC074608E0FFF72AFCC01B41F29A
:1017D0008831884201D9032086E74348806800F0B9
:1017E0000C006168B0EB810FEED1207800F00200B0
:1017F000022820D1207800F00400042805D13A48BE
:10180000806840F4E06038498860207800F0080083
:10181000082807D13448806820F4605040F4E06024
:10182000314988603048806820F0F000A1680843A2
:101830002D49886008E0B8F1800F05D12A488068FA
:1018400020F0F000284988602648006800F00F006A
:10185000A84219D92348006820F00F0028432149E5
:101860000860FFF7DDFB074608E0FFF7D9FBC01B68
:1018700041F28831884201D9032035E719480068D0
:1018800000F00F00A842F0D1207800F004000428F6
:1018900007D11548806820F4E060E16808431249E8
:1018A0008860207800F00800082808D10E48806879
:1018B00020F46050216940EAC1000B49886000F0C3
:1018C000B5F809498968C1F30311094A515C01F06F
:1018D0001F01C8400749086007480068FFF7C2FBBE
:1018E00002E70000002002400010024000B4C404DF
:1018F000545200086C0000204400002010B5FFF78F
:101900008FFB04463048006840F480702E49086020
:1019100006E0FFF785FB001B022801D9032010BD5C
:101920002948006800F480600028F2D0264840680A
:1019300040F0804024494860FFF772FB04460120D4
:101940002149886008E0FFF76BFB001B41F28831FA
:10195000884201D90320E2E71B48806800F00C00B0
:101960000428F0D119481A4908601A480068FFF79E
:1019700079FB08B10120D2E74FF48070124908606A
:101980000860FFF74DFB044606E0FFF749FB001B2C
:10199000022801D90320C2E70B48006800F000705C
:1019A0000028F2D14FF480500749C86000208861B8
:1019B000401E086204489430006840F40000C1F8FA
:1019C00094000020ABE70000001002400024F40067
:1019D0006C000020440000200148006870470000AF
:1019E0006C00002000B5FFF7F7FF05498968C1F3D7
:1019F0000221044A515C01F01F01C84000BD0000F3
:101A0000001002406452000800B5FFF7E5FF0549E9
:101A10008968C1F3C221044A515C01F01F01C8402A
:101A200000BD0000001002406452000870B5224D55
:101A3000AD6805F00C05042D01D120483AE01E4D9B
:101A4000AD6805F00C05082D01D11D4832E01A4D96
:101A5000AD6805F00C050C2D2BD1174DED6805F088
:101A60000304154DED68C5F303156A1C022C0CD058
:101A7000032C09D1124DB5FBF2F50F4EF668C6F3F3
:101A8000062605FB06F10AE000BF0C4DB5FBF2F59A
:101A9000094EF668C6F3062605FB06F100BF00BF37
:101AA000054DED68C5F341656D1C6B00B1FBF3F0AE
:101AB00000E0002070BD0000001002400024F4008F
:101AC00000127A002DE9F843044614B90120BDE85C
:101AD000F883207800F00100002865D0FC48806879
:101AE00000F00C07FA48C06800F003060C2F01D183
:101AF000032E01D0082F0AD1F548006800F4003009
:101B0000002851D0606800284ED10120DFE700BFD7
:101B10006068B0F5803F06D1ED48006840F4803041
:101B2000EB4908601AE06068B0F5A02F0BD1E848D7
:101B3000006840F48020E64908600846006840F4E8
:101B4000803008600AE0E248006820F48030E04914
:101B500008600846006820F48020086000BF6068C4
:101B600088B1FFF75DFA054606E0FFF759FA401B1A
:101B7000642801D90320AAE7D548006800F40030A2
:101B80000028F2D010E0FFF74BFA054606E0FFF719
:101B900047FA401B642801D9032098E7CC48006825
:101BA00000F400300028F2D1207800F00200022872
:101BB00060D1C748806800F00C07C548C06800F0D5
:101BC00003060C2F01D1022E01D0042F18D1C048DA
:101BD000006800F4806018B1E06808B9012076E779
:101BE000BB48406820F0FE40217C40EA0160B849D3
:101BF0004860B8480068FFF735FA18B3012066E777
:101C0000E06800B3B248006840F48070B0490860F2
:101C1000FFF706FA054606E0FFF702FA401B022826
:101C200001D9032053E7AA48006800F48060002827
:101C3000F2D0A748406820F0FE40217C40EA0160D5
:101C4000A349486016E0A248006820F48070A049CB
:101C50000860FFF7E5F9054606E0FFF7E1F9401BEC
:101C6000022801D9032032E79948006800F4806017
:101C70000028F2D1207800F00800082836D16069E9
:101C8000D0B193489430006840F001009049C1F809
:101C90009400FFF7C5F9054606E0FFF7C1F9401BC0
:101CA000022801D9032012E789489430006800F027
:101CB00002000028F1D019E085489430006820F037
:101CC00001008349C1F89400FFF7AAF9054606E030
:101CD000FFF7A6F9401B022801D90320F7E67C484C
:101CE0009430006800F002000028F1D1207800F064
:101CF0000400042872D14FF000087548806D01215E
:101D000021EA107078B100BF7148806D40F08050BA
:101D10006F4988650846806D00F08050009000BFD4
:101D200000BF4FF001086C48006800F48070B0B943
:101D30006948006840F4807067490860FFF770F9EF
:101D4000054606E0FFF76CF9401B022801D9032085
:101D5000BDE66148006800F480700028F2D000BF42
:101D6000A068012808D15A489030006840F001006E
:101D70005749C1F8900021E0A06805280FD15448C8
:101D80009030006840F004005149C1F890000846C6
:101D9000D0F8900040F00100C1F890000EE04C48EF
:101DA0009030006820F001004949C1F890000846D1
:101DB000D0F8900020F00400C1F8900000BFA068A7
:101DC000A8B1FFF72DF9054609E0FFF729F9401BF7
:101DD00041F28831884202D9032078E625E03C4868
:101DE0009030006800F002000028EED013E0FFF70A
:101DF00017F9054608E0FFF713F9401B41F2883157
:101E0000884201D9032062E631489030006800F032
:101E100002000028EFD1B8F1010F05D12C48806DE8
:101E200020F080502A49886500BF207800F020000B
:101E3000202836D1A069D0B125489830006840F0FC
:101E400001002349C1F89800FFF7EAF8054606E0CB
:101E5000FFF7E6F8401B022801D9032037E61C48AB
:101E60009830006800F002000028F1D019E018480E
:101E70009830006820F001001549C1F89800FFF77C
:101E8000CFF8054606E0FFF7CBF8401B022801D942
:101E900003201CE60E489830006800F0020000287D
:101EA000F1D1E069002860D00948806800F00C009A
:101EB0000C287AD0E069022858D10548006820F043
:101EC000807003490860FFF7ABF805460DE000009D
:101ED000001002404400002000700040FFF7A0F80E
:101EE000401B022801D90320F1E54A48006800F0B0
:101EF00000700028F2D1D4E90810401E41EA001118
:101F0000A06A41EA0021208E0122C2EB500041EA82
:101F100040513420005DC2EB500041EA40612C206A
:101F2000005D41EAC0603B49C9683B4A1140084333
:101F30003849C8600846006840F08070086008466C
:101F4000C06840F08070C860FFF76AF8054606E098
:101F5000FFF766F8401B022801D90320B7E52D489A
:101F6000006800F000700028F2D051E029480068B5
:101F700020F0807027490860FFF752F8054606E018
:101F8000FFF74EF8401B022801D903209FE52148A6
:101F9000006800F000700028F2D11E48C0681F4998
:101FA00008401C49C86033E0FFE7E069012800D120
:101FB0008DE51848C66806F00301206A814225D1E4
:101FC00006F0F001606A401EB1EB001F1ED106F45E
:101FD000FE41A06AB1EB002F18D106F078412C2009
:101FE000005DB1EBC06F11D106F4C001208E01225B
:101FF000C2EB5000B1EB405F08D106F0C061342065
:10200000005DC2EB5000B1EB406F01D001205EE5F6
:1020100000205CE5001002400C809F01FCFFEEFEFA
:1020200070B504462546681EB0F1807F01D30120BB
:102030000FE0681E4FF0E02148610F214FF0FF30A4
:1020400002F0CAF800204FF0E02188610720086103
:10205000002070BD704770477047704770477047E9
:102060007047704770B504462068C66820680569E7
:1020700005F00200022819D106F00200022815D14D
:10208000401F21680861012020772068806900F0E6
:10209000030018B12046FFF7E4FF05E0204600F0FA
:1020A000F1F8204600F0EFF80020207705F004005A
:1020B000042819D106F00400042815D1C043216872
:1020C0000861022020772068806900F4407018B110
:1020D0002046FFF7C6FF05E0204600F0D3F8204673
:1020E00000F0D1F80020207705F00800082819D169
:1020F00006F00800082815D1C043216808610420B3
:1021000020772068C06900F0030018B12046FFF76F
:10211000A8FF05E0204600F0B5F8204600F0B3F82F
:102120000020207705F01000102819D106F01000CB
:10213000102815D1C0432168086108202077206845
:10214000C06900F4407018B12046FFF78AFF05E02F
:10215000204600F097F8204600F095F80020207700
:1021600005F0010048B106F0010030B16FF0010048
:1021700021680861204600F087F805F0800080287B
:1021800004D005F40050B0F5005F0AD106F08000DD
:10219000802806D16FF40250216808612046FFF7BD
:1021A0005AFF05F48070B0F5807F0AD106F08000F8
:1021B000802806D16FF48070216808612046FFF7FF
:1021C00049FF05F04000402809D106F040004028B2
:1021D00005D1C04321680861204600F056F805F09B
:1021E0002000202809D106F02000202805D1C04376
:1021F000216808612046FFF72FFF05F48010B0F535
:10220000801F0BD106F48010B0F5801F06D16FF44B
:102210008010216808612046FFF720FF05F40010B8
:10222000B0F5001F0BD106F40010B0F5001F06D169
:102230006FF40010216808612046FFF70EFF05F4D7
:102240008000B0F5800F0BD106F48000B0F5800F50
:1022500006D16FF48000216808612046FFF7FFFE79
:1022600005F40000B0F5000F0BD106F40000B0F546
:10227000000F06D16FF40000216808612046FFF7C7
:10228000EFFE70BD7047704770477047014600BF52
:1022900091F88400012801D102207047012081F8C3
:1022A000840000BF2420C1F888000868026808681C
:1022B000006820F001000B68186022F00052002036
:1022C0004866086802602020C1F8880000BF00202E
:1022D00081F8840000BF00BFDFE77047704770B52A
:1022E00004460D4600BF94F88400012801D1022065
:1022F00070BD012084F8840000BF2420C4F8880049
:10230000206806682068006820F0010021680860E5
:102310002068806820F0606028432168886020463B
:1023200000F050FF206806602020C4F8880000BF3D
:10233000002084F8840000BF00BFD9E770B50446D0
:102340000D4600BF94F88400012801D1022070BD21
:10235000012084F8840000BF2420C4F8880020688D
:1023600006682068006820F0010021680860206885
:10237000806820F06040284321688860204600F093
:1023800021FF206806602020C4F8880000BF0020DC
:1023900084F8840000BF00BFD9E77047704710B5CC
:1023A00004460CB9012010BD2420C4F88800206820
:1023B000006820F0010021680860002021680860A2
:1023C0002168486021688860204600F033FA0020C8
:1023D0006C346062E0612062206060606C3C00BF31
:1023E00084F8840000BF00BFDDE770472DE9F047A7
:1023F00004462068C569206806682068876840F63A
:102400000F0005EA0009B9F1000F0FD105F0200017
:1024100060B106F0200010B907F0805030B1606F55
:1024200010B12046616F8847BDE8F087B9F1000F11
:102430007ED0DF48384018B9DE4830400028F7D059
:1024400005F0010058B106F4807040B10120216808
:102450000862D4F8900040F00100C4F8900005F044
:10246000020058B107F0010040B102202168086263
:10247000D4F8900040F00400C4F8900005F0040087
:1024800058B107F0010040B1042021680862D4F877
:10249000900040F00200C4F8900005F0080070B110
:1024A00006F0200010B9C248384040B10820216829
:1024B0000862D4F8900040F00800C4F8900005F4D9
:1024C000006060B106F0806048B14FF400602168A0
:1024D0000862D4F8900040F02000C4F89000D4F8CE
:1024E0009000002852D005F0200050B106F02000E6
:1024F00010B907F0805020B1606F10B12046616FB5
:102500008847D4F890A02068806800F040004028F8
:1025100002D00AF0280070B3204600F0DBFF2068EC
:10252000806800F04000402826D100BF00BF00E0D6
:102530002DE02168083151E8001F21F0400021689A
:10254000083141E80002002AF1D100BFD4F8800030
:1025500068B19948D4F880108863D4F88000FEF7F9
:10256000B3F898B1D4F88000816B88470EE020461C
:10257000FFF73BFF0AE003E02046FFF736FF05E0E8
:102580002046FFF732FF0020C4F890004CE7E06ED1
:10259000012865D105F01000002861D006F0100078
:1025A0000028FAD01020216808622068806800F0B6
:1025B000400040287AD1D4F88000006840681FFAB3
:1025C00080F8B8F1000F5CD0B4F85C00404558DDED
:1025D000A4F85E80D4F880000068006800F0200055
:1025E000E8BB00BF00BF216851E8001F21F48070E4
:1025F000226842E800010029F5D100BF00BF00BFFA
:102600002168083151E8001F21F0010021680831DC
:1026100041E80002002AF3D100BF00BF00BF2168DB
:10262000083151E8001F21F040002168083141E8DD
:102630000002002AF3D100BF2020C4F88C00002043
:10264000E06600BF00BF216851E8001F21F01000C4
:10265000226842E800010029F5D100BF01E004E052
:1026600068E0D4F88000FDF7F4FF02202067B4F89A
:102670005C00B4F85E20801A81B22046FFF72DFE80
:1026800012E0B4F85C0040450ED1D4F88000006838
:10269000006800F02000202806D102202067B4F84E
:1026A0005C102046FFF719FEBEE6FFE734F85C0F2A
:1026B0006188401A1FFA80F860885C3CC8B3B8F1A2
:1026C000000F36D000BF00BF216851E8001F21F481
:1026D0009070226842E800010029F5D100BF00BFD8
:1026E00000BF2168083151E8001F314AD24301EA96
:1026F00002002168083141E80002002AF1D100BF40
:102700002020C4F88C000020E066606700BF00BF96
:10271000216851E8001F21F01000226842E8000102
:102720000029F5D100BF0220206741462046FFF76F
:10273000D4FD79E605F4801050B107F4800038B17B
:102740004FF48010216808622046FFF727FE6BE6F1
:1027500005F0800058B106F0800010B907F40000C1
:1027600028B1A06F10B12046A16F88475CE605F044
:10277000400030B106F0400018B1204600F0E0FE05
:1027800052E605F4000030B106F0804018B1204652
:10279000FFF703FE48E605F0807030B106F0004018
:1027A00018B12046FFF79AFD3EE600BF3CE6000068
:1027B0000100001020010004FF33000810B504469A
:1027C0000CB9012010BDA06900B100E000BFD4F831
:1027D000880028B9002084F88400204600F078F8AA
:1027E0002420C4F888002068006820F001002168D7
:1027F0000860A06A10B1204600F010FD204601F0EC
:10280000D9F9012800D1DDE72068406820F4904024
:10281000216848602068806820F02A00216888606C
:102820002068006840F0010021680860204600F040
:1028300071FDC7E710B504461F492068884211D1D1
:102840001E48006E20F480401C49086640211C4848
:10285000FEF754FA80211A48FEF750FA2520FEF7B9
:102860002FFC27E01749206888420AD11348806D61
:1028700020F400301149886518211148FEF73EFA0E
:1028800018E011492068884214D10C48806D20F46A
:1028900080200A49886589150948FEF72FFA4FF408
:1028A00080610A48FEF72AFAE06FFDF757FF2720FC
:1028B000FEF706FC10BD0000003801400010024089
:1028C0000004004800440040004800400008004860
:1028D00010B59AB00446142115A8FDF7E5FC502167
:1028E00001A8FDF7E1FC7649206888423AD1012031
:1028F00001900020029001A8FEF7F2FC08B1FDF75C
:10290000C4FD00BF6F48006E40F480406D4908660A
:102910000846006E00F48040009000BF00BF00BF7A
:102920000846C06C40F00200C8640846C06C00F065
:102930000200009000BF00BFC0201590022016903A
:102940000020179018900720199015A95E48FEF7EF
:102950007BFA002211462520FEF7E4FB2520FEF736
:10296000D1FBAAE059492068884232D10220019067
:102970000020039001A8FEF7B3FC08B1FDF785FD28
:1029800000BF5048806D40F400304E4988650846CD
:10299000806D00F40030009000BF00BF00BF08460B
:1029A000C06C40F00200C8640846C06C00F0020031
:1029B000009000BF00BF1820159002201690002044
:1029C000179018900720199015A93F48FEF73CFA78
:1029D00073E03F49206888426FD1042001900020B5
:1029E000049001A8FEF77CFC08B1FDF74EFD00BF86
:1029F0003448806D40F48020324988650846806DF7
:102A000000F48020009000BF00BF00BF0846C06CEB
:102A100040F00400C8640846C06C00F00400009058
:102A200000BF00BF00BF0846C06C40F00200C86491
:102A30000846C06C00F00200009000BF00BF88157F
:102A400015900220169000201790189007201990DA
:102A500015A91D48FEF7F8F94FF480601590022083
:102A600016900020179018900720199015A9194862
:102A7000FEF7EAF91848194908601D20486010213E
:102A8000164881600021C1608021016100214161FF
:102A90008161C1610162FDF73FFF08B1FDF7F5FCFF
:102AA00000BF0E48E067846200BF0122002127209A
:102AB000FEF738FB2720FEF725FB1AB010BD0000FB
:102AC000003801400010024000040048004400406B
:102AD000004800400008004808000240880200202A
:102AE00070B504460D461646D4F88C00202821D136
:102AF00005B10EB9012070BD0020E0660E492068C6
:102B0000884211D02068406800F4000060B100BF26
:102B100000BF216851E8001F41F08060226842E850
:102B200000010029F5D100BF32462946204601F0B8
:102B300025FAE0E70220DEE70080004010B50446F9
:102B40000B48844213D101200A49C87000200A4969
:102B5000088008498A790888411C064B1980194663
:102B600089680A540122991D0148FFF7B9FF10BD79
:102B7000F4010020100000200C0000202DE9F84F87
:102B800004460E4617469946D4F88800202854D1AA
:102B900006B117B90120BDE8F88F00205434E06376
:102BA00021206063FEF73CFA824627806780543C10
:102BB000A068B0F5805F04D1206910B90025B04647
:102BC00002E035464FF0000820E053460022802105
:102BD0002046CDF8009001F07FFA20B12020C4F803
:102BE00088000320D7E745B9B8F80000C0F3080013
:102BF0002168886208F1020803E028782168886269
:102C00006D1CB4F85600401EA4F85600B4F85600E7
:102C10000028DAD15346002240212046CDF800900A
:102C200001F05AFA20B12020C4F888000320B2E74E
:102C30002020C4F888000020ADE70220ABE70000A8
:102C400070B504460E461546D4F8880020283FD1BA
:102C500006B10DB9012070BD44F8506FA580E58024
:102C6000002020642120A063E06A503CE0B11948B4
:102C7000E16FC8621848E16F08631848E16F486364
:102C80000020E16F8863236803F128022B46216D41
:102C9000E06FFDF7A9FE38B11020C4F890002020A5
:102CA000C4F888000120D6E740202168086200BFF0
:102CB00000BF2168083151E8001F41F08000216801
:102CC000083141E80002002AF3D100BF0020C2E72A
:102CD0000220C0E771340008C7340008133400082C
:102CE0000349884202D10121024A11707047000055
:102CF000F4010020260000207047000000BF00BF44
:102D000000BF00BF00BFBFF34F8F00BF00BF00BFB9
:102D10000948006800F4E06008490843001D0649BE
:102D2000086000BF00BF00BFBFF34F8F00BF00BFF0
:102D300000BF00BF00BFFDE70CED00E00000FA059A
:102D400000B587B0142102A8FDF7AEFA00BF7548A0
:102D5000C06C40F004007349C8640846C06C00F0C1
:102D60000400019000BF00BF00BF0846C06C40F0E7
:102D70000800C8640846C06C00F00800019000BF5D
:102D800000BF00BF0846C06C40F00100C8640846A0
:102D9000C06C00F00100019000BF00BF00BF0846FA
:102DA000C06C40F00200C8640846C06C00F002002D
:102DB000019000BF00BF012249155B48FEF72AF9C8
:102DC000012211035948FEF725F9012220214FF075
:102DD0009040FEF71FF9012291035448FEF71AF9BB
:102DE000002204215248FEF715F9012211034FF089
:102DF0009040FEF70FF90122D1024B48FEF70AF985
:102E0000012211034848FEF705F94FF400600290D3
:102E1000012003900490059002A94348FEF714F89E
:102E20004FF480500290012003900490059002A975
:102E30003D48FEF709F84FF48050029001200390BE
:102E40000490059002A94FF09040FDF7FDFF4FF46C
:102E5000806002900120039004900020059002A958
:102E60003448FDF7F1FF4FF48050029001200390A9
:102E7000002004900120059002A92C48FDF7E4FFF2
:102E80004FF4007002900120039000200490012074
:102E9000059002A92448FDF7D7FF4FF48040029027
:102EA00001200390002004900120059002A91F48F2
:102EB000FDF7CAFF4FF48060029000200390049059
:102EC00002A91A48FDF7C0FF0420029001200390D8
:102ED000002004900120059002A91548FDF7B4FFD9
:102EE000202002900120039004900220059002A966
:102EF0004FF09040FDF7A8FF402002900020039083
:102F0000049002A90848FDF79FFF4FF480500290FB
:102F1000012003900490059002A90348FDF794FF57
:102F200007B000BD0010024000080048000400483F
:102F3000000C00480018004810B50248FFF72FFAAF
:102F400010BD00006001002010B51C481C4908603D
:102F50004FF4E1304860002119488160C16001618F
:102F60000C21416100218161C16101624162002047
:102F7000134988620846FFF721FC08B1FDF785FA7E
:102F800000210F48FFF7DAF908B1FDF77EFA0021BA
:102F90000B48FFF7A4F908B1FDF777FA0848FFF7E7
:102FA00075F908B1FDF771FA05480068006840F04E
:102FB000200003490968086010BD0000004400407B
:102FC0006001002008B500BF1148806C40F004008B
:102FD0000F4988640846806C00F00400009000BF30
:102FE00000BF00BF0846806C40F0010088640846BE
:102FF000806C00F00100009000BF00BF03220021A0
:103000000B20FEF78FF80B20FEF77CF808BD0000C0
:103010000010024010B50248FFF7C1F910BD0000D2
:10302000F401002010B50446FFF7CCFF1A481B49F5
:1030300008600846446000218160C16001610C2184
:10304000416100218161C161016241620020134937
:1030500088620846FFF7B2FB08B1FDF716FA0021B7
:103060000E48FFF76BF908B1FDF70FFA00210B4886
:10307000FFF735F908B1FDF708FA0848FFF706F938
:1030800008B1FDF702FA05480068006840F020002A
:1030900002490968086010BD00480040F4010020A2
:1030A00000BFFEE700BFFEE77047000070B5164D99
:1030B000ED6805F00304144DED68C5F303156B1CB2
:1030C000022C0CD0032C09D1104DB5FBF3F50E4E9C
:1030D000F668C6F3062605FB06F10AE000BF0C4DB4
:1030E000B5FBF3F5084EF668C6F3062605FB06F1B8
:1030F00000BF00BF044DED68C5F341656D1C6A005B
:10310000B1FBF2F070BD00000010024000127A0026
:103110000024F4007047000010B5FDF787FF034856
:103120000088401C0149088010BD00000C000020F0
:1031300000B593B0382105A8FDF7B6F8142168460C
:10314000FDF7B2F80020FEF73FF802200590C0011D
:1031500008904020099002200C9002210D9101213D
:103160000E9115210F9102211091119104211291BC
:1031700005A8FEF7A7FC08B1FDF787F90F2000901E
:1031800003200190002002900390049004216846DF
:10319000FEF7A2FA08B1FDF778F913B000BD000000
:1031A0000348006840F4700001490860704700005F
:1031B00088ED00E010B50248FEF754FF10BD000096
:1031C0007400002070B5456E2DB90125A0F86A5035
:1031D000A0F868501CE0082308240568AD68C5F312
:1031E00042610568AD686A0F0A4DAD5C15FB04F5D8
:1031F000094EB65C95FBF6F5A0F86A50054D6D5C7E
:1032000015FB03F5044E765C95FBF6F5A0F86850C7
:1032100070BD0000445200084C52000890F828107D
:1032200001F00801082907D10168496821F400412B
:10323000826B11430268516090F8281001F001017F
:1032400039B10168496821F40031C26A114302684A
:10325000516090F8281001F00201022907D101689D
:10326000496821F48031026B11430268516090F883
:10327000281001F00401042907D10168496821F4EC
:103280008021426B11430268516090F8281001F0D0
:103290001001102907D10168896821F48051C26B9F
:1032A00011430268916090F8281001F02001202954
:1032B00007D10168896821F40051026C114302684A
:1032C000916090F8281001F04001402913D1016865
:1032D000496821F48011426C114302685160416CCD
:1032E000B1F5801F07D10168496821F4C001826CE3
:1032F00011430268516090F8281001F08001802984
:1033000007D10168496821F40021C26C11430268A9
:103310005160704738B504460020C4F89000FDF7AE
:103320007FFE05462068006800F00800082821D1CB
:103330006FF07E402B4600224FF400110090204693
:1033400000F0CAFEB0B100BF00BF216851E8001F05
:1033500021F08000226842E800010029F5D100BF79
:103360002020C4F8880000BF002084F8840000BF3B
:10337000032038BD2068006800F00400042830D124
:103380006FF07E402B4600224FF4800100902046D3
:1033900000F0A2FE28B300BF00BF216851E8001F63
:1033A00021F49070226842E800010029F5D100BFA5
:1033B00000BF00BF2168083151E8001F21F0010063
:1033C0002168083141E80002002AF3D100BF202023
:1033D000C4F88C0000BF002084F8840000BF0320E4
:1033E000C7E72020C4F88800C4F88C000020E066FD
:1033F000206700BF84F8840000BF00BFB9E770B544
:103400000446A56A0020A5F85E002846FEF7EDFFF9
:1034100070BD2DE9F0410546AC6AD4F88860D4F857
:103420008C702068806800F08000802807D1212EF1
:1034300005D10020A4F85600204600F099F8206835
:10344000806800F04000402807D1222F05D10020DD
:10345000A4F85E00204600F03DF8D4F8900040F05B
:103460001000C4F890002046FEF7BFFFBDE8F081D1
:1034700070B50546AC6A2868006800F02000F0B915
:103480000020A4F8560000BF00BF2168083151E8B1
:10349000001F21F080002168083141E80002002A65
:1034A000F3D100BF00BF00BF216851E8001F41F009
:1034B0004000226842E800010029F5D102E02046E0
:1034C000FFF70EFC70BD70B50446A56A2846FFF7ED
:1034D00013FC70BD00BF00BF026852E8002F22F449
:1034E0009071036843E80012002AF5D100BF00BFC5
:1034F00000BF0268083252E8002F104B02EA0301B5
:103500000268083242E80013002BF2D100BFC16EFE
:1035100001290CD100BF00BF026852E8002F22F041
:103520001001036843E80012002AF5D100BF2021F2
:10353000C0F88C100021C16641677047FEFFFFEFA5
:1035400010B5044600BF00BF216851E8001F21F0FC
:103550004000226842E800010029F5D100BF202088
:10356000C4F888000020A0672046FFF7B9FB10BD13
:1035700000BF00BF026852E8002F22F0C0010368BC
:1035800043E80012002AF5D100BF00BF00BF026867
:10359000083252E8002F22F400010268083242E8A3
:1035A0000013002BF3D100BF2021C0F88810704712
:1035B0002DE9F0410446B4F86070D4F88C0022285C
:1035C0006ED12068406A86B2A56D06EA07002880A1
:1035D000A06D801CA065B4F85E00401EA4F85E00DB
:1035E000B4F85E00002861D100BF00BF216851E837
:1035F000001F21F49070226842E800010029F5D1F3
:1036000000BF00BF00BF2168083151E8001F21F052
:1036100001002168083141E80002002AF3D100BF0F
:103620002020C4F88C0000206067206720492068B3
:10363000884211D02068406800F4000060B100BFEB
:1036400000BF216851E8001F21F08060226842E835
:1036500000010029F5D100BFE06E01281CD1002037
:10366000E06600BF00BF216851E8001F21F0100094
:10367000226842E800010029F5D100BF2068C06936
:10368000C0F3001010B1102021680862B4F85C107B
:103690002046FEF722FE09E02046FFF74FFA05E03C
:1036A0002068806940F0080021688861BDE8F081E9
:1036B000008000402DE9F84F0446B4F860B020685F
:1036C000C5692068006800902068D0F808A0D4F888
:1036D0008C0022287ED1B4F86890AEE02068406A61
:1036E0001FFA80F8A76D08EA0B003880A06D801CD7
:1036F000A065B4F85E00401EA4F85E002068C569AD
:1037000005F00700B0B305F0010060B1009800F4C7
:10371000807040B1012021680862D4F8900040F028
:103720000100C4F8900005F0020058B10AF0010051
:1037300040B1022021680862D4F8900040F00400F3
:10374000C4F8900005F0040058B10AF0010040B13F
:10375000042021680862D4F8900040F00200C4F808
:103760009000D4F8900028B12046FEF73EFE0020DD
:10377000C4F89000B4F85E0000285ED100BF00BF1E
:10378000216851E8001F21F48070226842E800019E
:103790000029F5D100BF00BF00BF2168083151E802
:1037A000001F414A01EA02002168083141E8000295
:1037B000002AF2D100BF2020C4F88C0000206067EE
:1037C00020673A492068884213D02068406800F496
:1037D000000000E05FE060B100BF00BF216851E879
:1037E000001F21F08060226842E800010029F5D125
:1037F00000BFE06E01281CD10020E06600BF00BFC2
:10380000216851E8001F21F01000226842E8000101
:103810000029F5D100BF2068C069C0F3001010B1C5
:10382000102021680862B4F85C102046FEF755FDB0
:1038300002E02046FFF782F907E0B9F1000F04D05B
:1038400005F0200000287FF449AF00BFB4F85E60A7
:1038500006B3B4F86800B04223DD00BF00BF2168A2
:10386000083151E8001F21F080502168083141E8FB
:103870000002002AF3D100BF0D48606700BF00BFFF
:10388000216851E8001F41F02000226842E8000151
:103890000029F5D105E02068806940F00800216822
:1038A0008861BDE8F88F0000FEFFFFEF0080004058
:1038B000B135000870B50446B4F86060D4F88C00E7
:1038C00022286FD12068406A85B2F0B22840A16DED
:1038D0000870A06D401CA065B4F85E00401EA4F8FE
:1038E0005E00B4F85E00002862D100BF00BF21680E
:1038F00051E8001F21F49070226842E8000100297D
:10390000F5D100BF00BF00BF2168083151E8001F9A
:1039100021F001002168083141E80002002AF3D1BA
:1039200000BF2020C4F88C00002060672067214978
:103930002068884211D02068406800F4000060B11F
:1039400000BF00BF216851E8001F21F0806022689D
:1039500042E800010029F5D100BFE06E01281CD12A
:103960000020E06600BF00BF216851E8001F21F081
:103970001000226842E800010029F5D100BF20684C
:10398000C069C0F3001010B1102021680862B4F8BB
:103990005C102046FEF7A1FC0AE02046FFF7CEF8B7
:1039A00006E0FFE72068806940F008002168886130
:1039B00070BD0000008000402DE9F05F0446B4F8BF
:1039C00060A02068C5692068D0F800B02068D0F8F1
:1039D0000890D4F88C0022287ED1B4F86880ADE03D
:1039E0002068406A87B20AF0FF003840A16D087075
:1039F000A06D401CA065B4F85E00401EA4F85E00F7
:103A00002068C56905F00700A8B305F0010058B1AA
:103A10000BF4807040B1012021680862D4F8900056
:103A200040F00100C4F8900005F0020058B109F020
:103A3000010040B1022021680862D4F8900040F0F3
:103A40000400C4F8900005F0040058B109F001002A
:103A500040B1042021680862D4F8900040F00200D0
:103A6000C4F89000D4F8900028B12046FEF7BDFCC1
:103A70000020C4F89000B4F85E0000285ED100BFBA
:103A800000BF216851E8001F21F48070226842E8DD
:103A900000010029F5D100BF00BF00BF2168083137
:103AA00051E8001F404A01EA02002168083141E85C
:103AB0000002002AF2D100BF2020C4F88C000020B0
:103AC0006067206739492068884213D020684068C1
:103AD00000F4000070B100E05EE000BF00BF2168AC
:103AE00051E8001F21F08060226842E800010029AF
:103AF000F5D100BFE06E01281CD10020E06600BFB8
:103B000000BF216851E8001F21F01000226842E840
:103B100000010029F5D100BF2068C069C0F3001082
:103B200010B1102021680862B4F85C102046FEF73E
:103B3000D4FB02E02046FFF701F807E0B8F1000FE0
:103B400004D005F0200000287FF44AAF00BFB4F88D
:103B50005E6006B3B4F86800B04223DD00BF00BF6A
:103B60002168083151E8001F21F080502168083198
:103B700041E80002002AF3D100BF0D48606700BF92
:103B800000BF216851E8001F41F02000226842E890
:103B900000010029F5D105E02068806940F00800A7
:103BA00021688861BDE8F09FFEFFFFEF00800040C4
:103BB000B53800082DE9FE4F044600200290E44984
:103BC0002068884200D100E000BF2169A068084356
:103BD00061690843E16940EA010820680068DD493D
:103BE000084040EA0800216808602068406820F426
:103BF0004050E168084321684860D4F81880D449EF
:103C00002068884202D0206A40EA0808206880685C
:103C1000D149084040EA0800216888602068C06AED
:103C200020F00F00616A08432168C86200BFCB49D9
:103C30002068884216D1CA48006800F0030030B1FD
:103C4000012808D0022804D0032808D105E0012566
:103C500007E0022505E0042503E0082501E0102522
:103C600000BF8DE0BF492068884216D1BC4800687B
:103C700000F00C0030B1042808D0082804D00C282B
:103C800008D105E0002507E0022505E0042503E052
:103C9000082501E0102500BF72E0B3492068884282
:103CA00016D1AF48006800F0300030B1102808D0BD
:103CB000202804D0302808D105E0002507E002259F
:103CC00005E0042503E0082501E0102500BF57E0CA
:103CD000A6492068884216D1A148006800F0C000BB
:103CE00030B1402808D0802804D0C02808D105E091
:103CF000002507E0022505E0042503E0082501E092
:103D0000102500BF3CE09A492068884219D19448A8
:103D1000006800F4407048B1B0F5807F0AD0B0F57B
:103D2000007F05D0B0F5407F08D105E0002507E011
:103D3000022505E0042503E0082501E0102500BF69
:103D40001EE083492068884219D18548006800F444
:103D5000406048B1B0F5806F0AD0B0F5006F05D073
:103D6000B0F5406F08D105E0002507E0022505E029
:103D7000042503E0082501E0102500BF00E0102520
:103D800000BF7349206888425BD135B1022D08D04D
:103D9000042D08D0082D0DD109E0FDF723FE0646BD
:103DA0000CE0744E0AE0FDF741FE064606E04FF4D3
:103DB000004603E000260120029000BF00BF002E55
:103DC00010D06D49606A31F81000B6FBF0F96068F8
:103DD00000EB4000484503D860680003484502D224
:103DE00001200290A8E06449606A31F810C0624680
:103DF000002330461946FCF70DFA4FF4807C002270
:103E0000A0FB0C3B01FB0CB100FB021061684908F0
:103E100059185041CDE90010D4F804C0624600237F
:103E200008460199FCF7F6F90746B7F5407F05D338
:103E3000B7F5801F02D22068C7607DE001200290A4
:103E40007AE0E069B0F5004F3FD1092D17D2DFE8E5
:103E500005F005090D160F1616161300FDF7C2FD25
:103E6000064610E0FDF7D0FD06460CE0414E0AE0A4
:103E7000FDF7DCFD064606E04FF4004603E00026B1
:103E80000120029000BF00BF86B33B49606A31F851
:103E90001000B6FBF0F04000616800EB5100B0FB91
:103EA000F1F7102F0ED3B7F5803F0BD24FF6F0701D
:103EB00007EA000AC7F342004AEA000A2068C0F88D
:103EC0000CA039E00120029036E0092D18D2DFE87D
:103ED00005F005090E17101717171400FDF782FDDE
:103EE000064611E0FDF790FD06460DE024E0214E68
:103EF0000AE0FDF79BFD064606E04FF4004603E0AE
:103F000000260120029000BF00BFAEB11A49606ACE
:103F100031F81000B6FBF0F0616800EB5100B0FB27
:103F2000F1F7102F06D3B7F5803F03D2B8B221685E
:103F3000C86001E0012002900120A4F86A00A4F802
:103F4000680000206067A0670298BDE8FE8F00004F
:103F500000800040F369FFCFFFF4FF1100380140FB
:103F6000881002400044004000480040004C0040DF
:103F7000005000400024F4002C52000830B50346E5
:103F80009965A3F85C20A3F85E200020586700BF65
:103F90009868B0F5805F0AD1186920B940F2FF1027
:103FA000A3F8600020E0FF20A3F860001CE0986800
:103FB00048B9186918B9FF20A3F8600014E07F2001
:103FC000A3F8600010E09868B0F1805F09D118692B
:103FD00018B97F20A3F8600006E03F20A3F8600036
:103FE00002E00020A3F8600000BF0020C3F89000AA
:103FF0002220C3F88C0000BF00BF1C68083454E8BE
:10400000004F44F001001C68083444E80005002D0E
:10401000F3D100BF586EB0F1005F2CD1B3F8680047
:10402000904228DC9868B0F5805F04D1186910B917
:104030002548586701E025485867186960B100BFF6
:1040400000BF1C6854E8004F44F480701D6845E8C8
:104050000004002CF5D100BF00BF00BF1C6808346D
:1040600054E8004F44F080501C68083444E80005D0
:10407000002DF3D126E09868B0F5805F04D118696F
:1040800010B91348586701E012485867186960B1C1
:1040900000BF00BF1C6854E8004F44F490701D68D6
:1040A00045E80004002CF5D10CE000BF00BF1C68FF
:1040B00054E8004F44F020001D6845E80004002C3F
:1040C000F5D100BF002030BDB5360008B939000871
:1040D000B1350008B53800082DE9F04104460D4619
:1040E00017469846069E41E0701C00283ED0FCF71B
:1040F00097FFA0EB0800B04200D816B90320BDE836
:10410000F0812068006800F0040070B3802D2DD08D
:10411000402D2BD02068C069C0F3C00078B10820C2
:10412000216808622046FFF7D5F90820C4F89000FE
:1041300000BF002084F8840000BF0120DFE7206872
:10414000C069C0F3C02080B14FF4006021680862EC
:104150002046FFF7BFF92020C4F8900000BF0020E0
:1041600084F8840000BF0320C9E7FFE72068C06926
:104170002840A84201D1012000E00020B842B3D07D
:104180000020BCE710B50248FEF730F910BD000072
:10419000CC00002010B50248FEF728F910BD000041
:1041A000F401002000BFFEE70FB4054B10B503A9D2
:1041B000044A029800F034F810BC5DF814FB0000CB
:1041C000ED4C00087000002002480068C0F3022097
:1041D000704700000CED00E010B5002804DB0A0772
:1041E000130E054A135406E00A07140E034A00F0A2
:1041F0000F031B1FD45410BD00E400E018ED00E0D5
:1042000002E008C8121F08C1002AFAD1704770479F
:10421000002001E001C1121F002AFBD170470000FD
:104220002DE9FF4F8DB00F460546002606E02528F4
:104230000BD0DDE90F1290476D1C761C2878002802
:10424000F5D111B03046BDE8F08F0024A246A1465A
:104250000122E94900E0044315F8013F203B02FA3E
:1042600003F00842F7D128782A2810D06FF02F02E7
:104270002878A0F13001092914D80AEB8A0102EB51
:10428000410144F0020400EB010A6D1CF0E701CF8C
:104290005FEA000A03D544F40054CAF1000A44F06E
:1042A00002046D1C28782E2817D115F8010F44F050
:1042B00004042A280ED06FF02F022878A0F13001D4
:1042C00009290AD809EB890102EB410100EB010938
:1042D0006D1CF2E757F8049B6D1C28786C280FD0F2
:1042E00006DC4C2817D068280DD06A2814D104E0C9
:1042F000742810D07A280FD10DE044F400140AE09D
:1043000044F4801401E044F440146978814202D1FD
:1043100004F580146D1C6D1C28786E281ED00CDCF2
:10432000632830D004DC00288BD0582811D19FE0BE
:10433000642867D069280CD164E073282DD004DC90
:104340006F2872D0702804D194E075286ED0782838
:104350006DD0DDE90F129047761C4BE1C4F302509B
:10436000022806D0032809D0042801CF09D006600E
:1043700040E101CFF117C0E900613BE101CF0680C8
:1043800038E1067036E117F8040B8DF800000020C4
:104390008DF80100EB46012003E057F804BB4FF015
:1043A000FF3061074FF0000102D40DE008F1010178
:1043B000884649450FDA8045F8DB1BF808100029CC
:1043C000F4D108E008F1010188468142FADB1BF8CC
:1043D00008100029F6D1DDE90F23AAEB0800814679
:1043E000214600F031F9304400EB080604E0DDE935
:1043F0000F121BF8010B9047B8F10108F7D22146C4
:104400004846F2E00A21C4F302524FF0000B089133
:10441000022A04D001CFC117032A09D00AE0FF1DE8
:1044200027F00707F7E8020108E02CE01EE01FE094
:1044300000B2C117042A01D140B2C117021E71F1A6
:10444000000206DA0023D0EB030063EB01012D220A
:1044500002E0220504D52B228DF82420012203E05E
:10446000E20701D02022F7E7904653E00A210BE053
:10447000102109E010214FF0000B44F004044FF02C
:104480000809089103E008214FF0000B0891C4F3DC
:104490000252022A04D001CF0021032A06D006E0EE
:1044A000FF1D27F00707F7E8020103E080B2042AA6
:1044B00000D1C0B24FF0000822072BD52A78702A0D
:1044C00007D0DDF820C08CF0100C5CEA0B0C05D096
:1044D0000EE040228DF82420012208E050EA01037A
:1044E00006D030238DF824308DF825200222904606
:1044F000089B83F0080353EA0B030BD150EA010237
:1045000001D1620706D530228DF824204FF0010832
:10451000A9F101092A78582A04D038A20B9208AAD6
:104520000A920BE03AA2F9E75B46089AFBF772FEA3
:104530000B9B9B5C0A9A521E0A92137050EA01026E
:10454000F2D10A98ADEB000000F1200B600702D514
:1045500024F4803401E04FF00109D94502DDA9EBD4
:104560000B0000E0002000EB0B0141440890AAEB97
:10457000010AE00306D4DDE90F232146504600F08E
:1045800063F806444FF0000908E009A911F8090092
:10459000DDE90F12904709F10109761CC145F4DBF2
:1045A000E0030CD5DDE90F232146504600F04CF81E
:1045B000064404E0DDE90F1230209047761C08998C
:1045C000481E08900029F5DC08E00A980A9900784E
:1045D000491C0A91DDE90F129047761CBBF10001DE
:1045E000ABF1010BF1DC21465046DDE90F2300F071
:1045F00019F806446D1C21E60928010030313233D8
:10460000343536373839616263646566000000000E
:1046100030313233343536373839414243444546F8
:10462000000000002DE9F041044600251E46174613
:10463000880404D405E039462020B0476D1C641E70
:10464000F9D52846BDE8F0812DE9F0410446002562
:104650001E469046C80301D5302700E02027880475
:1046600004D505E041463846B0476D1C641EF9D5B7
:104670002846BDE8F08100002DE9FC470027042012
:104680003F49087000F07CFA042000F047FA8046A9
:104690000420FBF757FE00BF1EE0002408E0394964
:1046A0003944081900F01FFB0DF80400601CC4B267
:1046B000082CF4DB684600F0E3FA05460E4628466F
:1046C000314600F08FFA8046B8F1000F03D0414622
:1046D0002DA0FFF769FD08373148D0F803000838EE
:1046E000B842DAD22E48C07800F00709B9F1000FBD
:1046F00026D0002408E023493944081900F0F3FAD1
:104700000DF80400601CC4B24C45F4DB04E0FF204B
:104710000DF80400601CC4B2082CF8DB684600F0F9
:10472000AFFA05460E462846314600F05BFA804651
:10473000B8F1000F03D0414613A0FFF735FD00BFCD
:1047400000F018FA00200E4908701548B0F807204C
:10475000D0F80310134800F057FB38B912A0FFF748
:1047600023FD00F0DBFA0020BDE8FC870C48B0F820
:104770000720D0F803100FA0FFF716FD0120F3E784
:104780000E00002000300408666C617368206E65BE
:104790007874206572726F723D25640D0A00000006
:1047A0004A07002000600008617070206372632077
:1047B0006F6B0A006C656E203D2564206372633D5B
:1047C0002578206E670A00002DE9FC5F80468A4646
:1047D000D1209B49087098F80000012804D00428D3
:1047E00071D00F2837D137E0AAF10100092832D162
:1047F000012408F10105D5F80300B0F5743F04D990
:10480000002490A0FFF7D0FC19E000F02DFB9348A6
:10481000D8F801100160D8F80510416098F8091027
:1048200001728F48007838B900F0AAF9022000F030
:1048300075F90220FBF786FD0120894908700220E6
:104840007F494870084684701020C87004217C4855
:1048500000F0CCFA00BFF0E008F101040020019064
:104860007F480078012808D1208830B902217C488F
:10487000017000207B4908800EE02188794800887B
:10488000401C814208D0012001902288754801888F
:10489000491C75A0FFF788FCAAF10500E178884261
:1048A0007ED101980028FBD1E178201D00F0F1F9BC
:1048B0000090A178009881427FD14FF0000B00203A
:1048C000054606464FE096E06E480078002832DD47
:1048D00000270AE0300240EA15662D026A48C05DF2
:1048E000451946F10006781CC7B266480078874231
:1048F000F0DB00270AE0300240EA15662D02201D99
:10490000C15D4D1946F10006781CC7B25D480078BC
:10491000C0F10800B842EEDC2846314600F062F9EA
:10492000814658480078C0F108001FFA80FB00203B
:10493000544908700FE0211D01EB0B0000F0A0F9B5
:1049400005460E462846314600F04CF981460BF1EB
:1049500008001FFA80FBB9F1000F03D049464BA0B5
:10496000FFF722FC00BFE0784649097801440BF1CB
:1049700008008142A8DAE078A0EB0B0041490870FA
:10498000E0780A461278821A201D11183D480278F4
:104990003D48FBF770FC208832490880218801E0FF
:1049A0000CE00AE0481CC11700EB11710911A0EBE3
:1049B000011109B90120019000BF07E0019818B961
:1049C000E17838A0FFF7F0FB012001900198012861
:1049D00010D11B4DAD1C23480088288000F094F9AD
:1049E000C5F802000320A91E48700821A81E00F087
:1049F000FDF900BF21E0BAF1010F1DD10024032011
:104A0000174908701548B0F80720D0F803102B4854
:104A100000F0FAF900B90124214629A0FFF7C4FBF0
:104A200005200749487008468470032100F0DEF92C
:104A30000CB1FFF721FE00BF00BF00BFBDE8FC9F27
:104A4000530700206F74615F7065726D69737369DD
:104A50006F6E206661696C0D0A0000004A07002035
:104A60000E00002028000020727820696E646578AE
:104A7000206572726F72206E656564202564202542
:104A8000640D0A002A0000202B000020666C617370
:104A900068206E657874206572726F723D25640DB2
:104AA0000A0000006672616D652064617461206CAB
:104AB000656E202564206E670D0A00000030040832
:104AC000636865636B5F69735F6F6B3D25640D0A97
:104AD0000000000010B50D48007838B901200B49DE
:104AE0000870FCF79DFA0A4908600DE0FCF798FA97
:104AF00007490968401A0749884205D906480068ED
:104B0000401C08B100F00AF910BD00003C00002074
:104B100038000020E0930400006000087FB50446E0
:104B20000025FCF7D3F8022C06D17A2003900E481A
:104B3000FBF78AFD029005E07A2003900B48FBF713
:104B400083FD0290012001900020009008496846F2
:104B5000FBF7CAFF0546FCF749F815B9002004B079
:104B600070BD0420FBE7000000300408006000086E
:104B70000000002010B5FCF739F8002010BD00003F
:104B800008B500BF1548806C40F4807013498864F4
:104B90000846806C00F48070009000BF00BF00BF2A
:104BA0000846006E40F0010008660846006E00F0FE
:104BB0000100009000BF00BFFCF788F800BF084864
:104BC000806940F04040064988614CF2FA30086143
:104BD00000BFFCF70BF8002008BD000000100240E9
:104BE0000020024070B504460D4620480078022897
:104BF0000DD11F4800681F49884204D31C48006833
:104C00001D49884212D9FBF7F1FF052070BD1848F5
:104C100000681A49884205D31548006815490839C3
:104C2000884203D9FBF7E2FF0520EFE722462B4637
:104C30000F4801680020FBF7E9FF80B90C480168C4
:104C400003C960406940084303D0FBF7CFFF05204C
:104C5000DCE70748006808300549086003E0FBF717
:104C6000C5FF0520D2E70020D0E7000008000020A3
:104C70000400002000300408F8FF07080060000866
:104C80001CB502461068009050680190DDE90001F3
:104C90001CBD10B502460023002004E0145C1C4437
:104CA000A3B2441CA0B28842F8DBD8B210BD70B5E4
:104CB0000346184611E011F8015B684000240AE041
:104CC00000F0010525B14AF2010585EA600000E027
:104CD0004010651CECB2082CF2DB151EA2F1010697
:104CE000B2B2E8D170BD01460878704713B50C46E2
:104CF0004FF6FF73012269460248FDF73FFF009817
:104D00001CBD000060010020024800680249401AF2
:104D100070470000040000200030040870B50D4802
:104D200044682546FCF7EAFDFBF7C0FEFEF704F9F0
:104D3000FEF770F900204FF0E021086148618861BA
:104D40000448054908600146086880F3088800BFE8
:104D5000A84770BD0060000808ED00E010B5FCF742
:104D600071F9FEF7E5F9FDF7EBFFFEF7EDF842F21A
:104D70001070FBF77AFBFBF705FB28B10CA0FFF7DF
:104D800013FAFFF7CBFF11E04FF4E130FEF74AF9D9
:104D900001220E490E48FDF7A3FE0EA0FFF704FA0C
:104DA00003E000F079F8FFF795FEFAE7002010BD68
:104DB000626F6F742076312E3020456E7465726993
:104DC0006E67206170702E2E2E0D0A0016000020D6
:104DD000F4010020456E746572696E6720626F6F22
:104DE000742076312E312E2E2E0A000070B5044626
:104DF0000D462A4621460348FDF722FF08B1FBF77E
:104E000044FB70BDF40100202DE9F047C0B080469E
:104E10000D4691464FF6FF7A00241AE004F58070A3
:104E2000A84201D92F1B01E04FF48077002607E04C
:104E300008EB04018819FFF756FF0DF80600761CF1
:104E4000BE42F5D3BAB269465046FFF730FF8246FC
:104E50003C44AC42E2D3CA4503D1002040B0BDE897
:104E6000F0870120FAE7000010B5FCF7D9F80149F6
:104E7000086010BD3800002010B5FCF7D1F842F2F0
:104E8000107108440249401A0249086010BD000030
:104E9000E09304003800002070B57648C0780128FF
:104EA0007ED17548008801287ADD744890F8005456
:104EB00090F80004401C714981F80004084690F8FD
:104EC0000004042802DB002081F80004694B1A88E2
:104ED0009968C5EB0523694C1819FBF7CCF96548AF
:104EE0000088C1B204F57F704155624A118890680C
:104EF000FBF7DAF900205F490880C87000BF5D4801
:104F0000407900284AD100240CE05C4890F8010464
:104F1000C0EB0020594A1044015D59A0FFF744F945
:104F2000601CC4B2554890F8011400F57F70405CD5
:104F3000A042EADC514890F80104C0EB00204F4940
:104F4000085CD1280AD1084690F80104C0EB002083
:104F500008444078012801D146494871474991F8F1
:104F60000114C1EB0121454A88184649FBF7A7F90E
:104F700018B145A0FFF718F910E0404991F8011465
:104F8000C1EB01213D4A88184249FBF798F928B145
:104F900001203849487140A0FFF706F9354800E084
:104FA00067E0407901284BD1344991F80114C1EBF5
:104FB0000121324A88183B49FBF781F958B13AA0E0
:104FC000FFF7F2F8FFF7D6FD00203B4908702949AA
:104FD0004871FFF751FF294890F80104C0EB002009
:104FE0002649085C012804D0D02806D0D1281BD13E
:104FF00007E032A0FFF7D8F821E036A0FFF7D4F899
:105000001DE01E4A92F8013402F57F72D25C521EF6
:1050100091B21A4A92F80124C2EB0222174B1A44A9
:10502000501CFFF7D1FB0AE0144890F80104C0EBD4
:105030000020124A115C2BA0FFF7B6F800BF00BF9A
:105040000E4890F80104401C0C4981F80104084600
:1050500090F80104042802DB002081F801040748CD
:1050600090F80104054991F8001488427FF447AF95
:1050700000BF70BD100000200C000020480300207D
:10508000256300000D520008636F6E6E65637465E2
:10509000640D0A00165200086E6F74696679206507
:1050A0006E0D0A0020520008646973636F6E6E65AE
:1050B00063740D0A000000000E0000204745545F95
:1050C0004445565F56455253494F4E5F434D440D3C
:1050D0000A0000004F54415F434D445F5354415216
:1050E000540D0A00756E6B6F776E20636D6420300F
:1050F00078253032780D0A0041542B5245534554DF
:105100000D0A0041542B52455345544F52450D0A48
:105110000041540D0A0041542B5645520D0A0041DE
:10512000542B424C454D41430D0A0041542B424102
:1051300055440D0A0041542B555549440D0A004170
:10514000542B524F4C450D0A0046435F59313032C3
:10515000345F5630310D0A0041542B424155443DD5
:105160003233303430300D0A0041542B424C454E1E
:10517000414D453D424941490D0A0041542B524F92
:105180004C453D310D0A0041542B524F4C453D30AA
:105190000D0A0041542B5343414E3D310D0A00414D
:1051A000542B434F4E4E3D303864376334313832E0
:1051B0003035630D0A0030386437633431383230AB
:1051C00035630041543E390D0A0041542B44495384
:1051D000433D300D0A00424C455F434F4E4E0D0A91
:1051E0000D0A41542B524F4C453D534552564552A2
:1051F0000D0A000D0A41542B524F4C453D434C497A
:10520000454E540D0A000D0A6F6B0D0A00424C45C5
:105210005F434F4E4E004E4F544946595F454E0036
:10522000424C455F444953430D0A0000010002000F
:105230000400060008000A000C00100020004000D6
:1052400080000001010101030701000008040204BD
:105250000801010100000000000000000102030439
:105260000607080900000000010203048C52000830
:1052700000000020740000000042000800530008F5
:1052800074000020140F000010420008000000000D
:1052900000300408020000000000000000000000D0
:1052A0000000000085070020000000000000000052
:1052B00000000000000000000000000000000000EE
:1052C00000000000000000000000000000000000DE
:1052D00010000000010000000000000000000000BD
:1052E00000000000000000000100000000000000BD
:1052F00000000000000000000024F4000000000096
:04000005080001D915
:00000001FF
