:020000040800F2
:10600000B02B0020F161000875B6000879AB0008DC
:1060100071B60008ED6B000871CA000800000000AE
:10602000000000000000000000000000EDB80008C3
:10603000A96C00080000000079B60008F1B800085B
:106040000B6200080B6200080B6200080B6200087C
:106050000B6200080B6200080B6200080B6200086C
:106060000B6200080B6200080B620008F16B00086D
:106070000B6200080B6200080B6200080B6200084C
:106080000B6200080B6200080B6200080B6200083C
:106090000B6200080B6200080B6200080B6200082C
:1060A0000B6200080B6200080B6200080B6200081C
:1060B0000B6200080B6200080B6200080B6200080C
:1060C0000B6200080B6200080B6200080B620008FC
:1060D0000B6200084DCA00080B6200085DCA000888
:1060E0004D6E00080B6200080B6200080B6200088E
:1060F0000B6200080B6200080B6200080B620008CC
:10610000000000000B620008000000000B620008A5
:106110000B6200080B6200088DB900089DB90008E9
:106120000B6200080B6200080B6200080B6200089B
:106130000B62000800000000000000000B62000875
:106140000B6200080B620008000000000000000065
:10615000000000000000000000000000000000003F
:106160000000000000000000000000000B620008BA
:106170000B6200080B6200080B6200080B6200084B
:106180000B6200080B620008000000000000000025
:1061900000000000000000000B6200080B62000815
:1061A00000000000000000000B6200080B62000805
:1061B0000B6200080B6200080B6200080B6200080B
:1061C0000B6200080B6200080B6200080B620008FB
:1061D0000B6200080B620008DFF810D000F018FB1B
:1061E0000048004731150108AFF30080B02B0020B4
:1061F0000648804706480047FEE7FEE7FEE7FEE761
:10620000FEE7FEE7FEE7FEE7FEE7FEE779B90008F6
:10621000D96100082DE9F05F0546002092469B46B3
:1062200088460646814640241BE0284641464746AC
:10623000224600F056FA53465A46C01A914110D3EE
:1062400011461846224600F03DFA2D1A67EB010868
:106250004F4622460120002100F034FA17EB0009D6
:106260004E41201EA4F10104DFDC484631462A4697
:106270004346BDE8F09F40EA01039B0703D009E0D5
:1062800008C9121F08C0042AFAD203E011F8013B22
:1062900000F8013B521EF9D27047D2B201E000F87B
:1062A000012B491EFBD270470022F6E710B51346BA
:1062B0000A4604461946FFF7F0FF204610BD30B5E8
:1062C00005462A460B4612F8010B13F8014B08B19C
:1062D000A042F8D01CB1002802D06D1CF1E728467E
:1062E00030BD421C10F8011B0029FBD1801A7047F9
:1062F000034611F8012B00F8012B002AF9D11846AA
:1063000070472DE9FE4F804681EA0300C00F0C461E
:10631000009021F0004123F00045B8EB0200A941B4
:1063200005D24046214690461C460B46024623F0C5
:106330000040104347D0270DC7F30A00C3F30A51AA
:106340000290401A019040286BDAC3F3130040F426
:10635000801B0098924620B10023D2EB030A63EB26
:106360000B0B01985946C0F14002504600F0AAF9C3
:1063700006460D4650465946019A00F0C2F910EB08
:1063800008006141002487EA115284EAE7731A4346
:1063900040D0009A62B3019A012A4FEA075215DCF5
:1063A000001B61EB02014FF0004202EA0752CDE907
:1063B0000042001C41F5801132462B4600F0C2F924
:1063C00003B0BDE8F08F40462146F9E7001B61EBC2
:1063D0000201001C41F5801300185B412018A2F552
:1063E000001747EB030140EAD570B6196D4111E083
:1063F0006D084FEA360645EAC0754FEA0752001BA2
:1064000061EB0201001C41F5801149084FEA3000A0
:106410000019514132462B4603B0BDE8F04F00F061
:1064200082B90098012240000023D0EB020263EB06
:10643000E073009821464FEAE074B8EB000061EB8E
:106440000401E9E783F000435BE781F0004158E78E
:106450002DE9FE4F81EA030404F0004421F00041DD
:1064600000944FF0000B23F0004350EA01045ED08B
:1064700052EA03045BD0C3F30A54C1F30A552C4417
:10648000A4F2F3340194A0FB0254C1F3130141F4CC
:106490008011C3F3130343F4801301FB024400FB98
:1064A000034E840A970A44EA815447EA8357A4FBBF
:1064B000076802958D0A05FB07854FEA932C04FBBC
:1064C0000C542705029D4FEA065847EA1637B5EBEC
:1064D00008056EEB070C870E920E47EA811742EA19
:1064E0008312A7FB0201B6EB0B0164EB00042B0D3A
:1064F00043EA0C335E1844EB1C50DA465146E7FB86
:106500000201C5F313044FEA0B3343EA14534FEA75
:106510000432019C43EA0603A4F10C040294009C9B
:10652000CDE900B400F00EF903B0BDE8F08F002013
:106530000146F9E72DE9F04D81EA030404F0004B30
:1065400021F0004514464FF0000A23F0004150EAC4
:10655000050220D054EA01021DD0C5F30A570246B5
:10656000C5F31303C1F31300C1F30A5640F48015B9
:1065700043F48013A7EB0608101BD64608F2FD383B
:1065800073EB050002D308F1010801E092185B41AA
:10659000B8F1000F03DA00200146BDE8F08D0020BD
:1065A0004FF48011064684460EE0171B73EB050777
:1065B00005D3121B63EB050306434CEA010C4908A3
:1065C0004FEA300092185B4150EA0107EDD152EAE0
:1065D000030012D082EA040083EA0501084305D0D3
:1065E000101BAB4106D20122002306E000224FF02F
:1065F000004302E06FF0010253101AEB06004CEB6F
:10660000085110EB0A0041EB0B01BDE8F04D00F022
:106610008AB800F0004230F000400AD0C10D01F508
:106620006071C0F3160042EA0151C20840071143ED
:10663000704700200146704730B5041E71F1000418
:1066400004DB4FF00044404264EB0101141E73F17F
:10665000000405DB1C464FF00043524263EB040389
:106660008B4208BF824230BD30B5041E71F1000478
:1066700004DB4FF00044404264EB0101141E73F14F
:10668000000405DB1C464FF00043524263EB040359
:10669000994208BF904230BD30B50B4601460020FC
:1066A0002022012409E021FA02F59D4205D303FAD4
:1066B00002F5491B04FA02F52844151EA2F1010255
:1066C000F1DC30BD202A04DB203A00FA02F1002080
:1066D00070479140C2F1200320FA03F31943904020
:1066E0007047202A04DB203A21FA02F0002170478B
:1066F00021FA02F3D040C2F120029140084319462A
:106700007047202A06DBCB17203A41FA02F043EA11
:10671000E07306E041FA02F3D040C2F1200291405A
:1067200008431946704710B5141E73F1000408DAC7
:10673000401C41F1000192185B411A4301D120F045
:10674000010010BD2DE9F04D92469B4611B1B1FA02
:1067500081F202E0B0FA80F220329046FFF7B2FFF9
:1067600004460F4640EA0A0041EA0B0153465A46E6
:10677000084313D0114653EA010019D0C8F1400272
:106780005046FFF7AEFF05460E4650465946424674
:10679000FFF798FF084305D0012004E02046394662
:1067A000BDE8F08D0020054346EAE0762C433743F0
:1067B0000A986305E40AA0EB08000022FD0A44EAF7
:1067C00047540A3002D500200146E9E701051019B7
:1067D0006941DDE9084500196941BDE8F04DA2E7CE
:1067E000C1F30A52C1F3130140F2FF3341F48011A7
:1067F0009A4202DA00200146704740F233439A423F
:10680000A2F2334202DC5242FFF76BBFFFF75ABFDE
:10681000064C074D06E0E06840F0010394E80700ED
:1068200098471034AC42F6D3FFF7DAFC5830010831
:106830007830010870B58C1810F8015B15F007036B
:1068400001D110F8013B2A1106D110F8012B03E009
:1068500010F8016B01F8016B5B1EF9D12B0705D411
:106860000023521E0DD401F8013BFAE710F8013B5A
:10687000CB1A921C03E013F8015B01F8015B521E76
:10688000F9D5A142D8D3002070BD000032200549BF
:10689000087005490870054908700120044908700E
:1068A000704700000E0000200F00002010000020A4
:1068B0001100002070B504460D4616464A4800787F
:1068C0000A2871D2DFE800F08A052871757D798188
:1068D0008589464801780078401C444A1070444835
:1068E00020F81150434801780078401C414A10704C
:1068F000414820F81140414801780078401C3F4A47
:1069000010703F4820F8116038480078642802D1A0
:1069100002203549087062E05F2013E0344A411CD0
:1069200032F8111022F81010334A411C32F81110BD
:1069300022F81010324A411C32F8111022F81010BF
:10694000411CC8B26328E9DB2948A0F8C6502A4890
:10695000A0F8C6402A48A0F8C66000F053F80346E5
:10696000012B03D10320204908701CE0022B03D126
:1069700004201D49087016E0032B03D106201A4994
:10698000087010E0042B03D10520174908700AE0B5
:10699000052B03D107201449087004E0062B02D10F
:1069A0000820114908701AE018E0FFF76FFF032074
:1069B00070BDFFF76BFF0420FAE7FFF767FF0620C3
:1069C000F6E7FFF763FF0520F2E7FFF75FFF072019
:1069D000EEE7FFF75BFF0820EAE700E000BF00BF3B
:1069E00001480078E4E70000110000200E000020BC
:1069F000500900200F000020180A0020100000207D
:106A0000E00A002086B0002008E000F16001714A31
:106A100032F8111002AA22F81010401C0428F4DBEE
:106A2000002008E000F160016B4A32F8111004AA5E
:106A300022F81010401C0428F4DB002007E000F1CD
:106A40006001664A32F811102DF81010401C04281D
:106A5000F5DBBDF90200BDF90010884213DABDF97B
:106A60000400BDF9021088420DDABDF90600BDF937
:106A70000410884207DABDF906005949884202DA53
:106A8000032006B07047BDF90200BDF9001088422E
:106A900013DDBDF90400BDF9021088420DDDBDF91A
:106AA0000600BDF90410884207DDBDF9060043F277
:106AB000C821884201DD0420E3E7BDF91200BDF9D9
:106AC0001010884224DDBDF91400BDF9121088426F
:106AD0001EDDBDF91600BDF91410884218DDBDF9A0
:106AE000160043F2B061884212DD3E48007800F0A3
:106AF000010030B1BDF91600B0F57A5F01DD02206A
:106B0000BFE73848007800F00100E8BB0220B8E792
:106B1000BDF91200BDF91010884223DABDF9140046
:106B2000BDF9121088421DDABDF91600BDF9141026
:106B3000884217DABDF916002B49884212DA294833
:106B4000007800F0010030B1BDF9160010F57A5F51
:106B500001DA012095E72348007800F0010098B998
:106B600001208EE7BDF90A00BDF90810884215DD45
:106B7000BDF90C00BDF90A1088420FDDBDF90E0009
:106B8000BDF90C10884200E021E007DDBDF90E00E0
:106B900043F2C821884201DD062072E7BDF90A00F0
:106BA000BDF90810884212DABDF90C00BDF90A10CF
:106BB00088420CDABDF90E00BDF90C10884206DAE5
:106BC000BDF90E000649884201DA052059E7002088
:106BD00057E70000180A002050090020E00A0020B2
:106BE00038CDFFFFB004002050C9FFFF00BFFEE713
:106BF00010B5024800F05EFE10BD0000400E0020FF
:106C000030B50E4D0468AC4201D20D4901E00C498B
:106C100020310B460478083C1425B4FBF5F2446C93
:106C2000A40803EB84048464054C8034C46402F03B
:106C30001F050124AC40046530BD0000080402407B
:106C40000008024001794A1E064B03EB82024265AE
:106C5000044A403282654A1E02F01F0301229A4014
:106C6000C26570470009024030B5D0E913546C602A
:106C7000446D14B1D0E916546C6090F8444004F0AF
:106C80001F050124AC40056C6C6004686360846877
:106C9000102C04D10468A2600468E16003E0046879
:106CA000A1600468E26030BD7047000010B50AF0D2
:106CB00087F90AF0C9FD00224FF400710E4801F077
:106CC0002FF900224FF480510C4801F029F90C48AB
:106CD000C06C20F008000A49C8640846C06C20F067
:106CE0000100C8640846C06C20F00200C86401219D
:106CF000880301F0FDFE10BD0008004800040048B4
:106D00000010024030B585B001F032FD04F0FCFD0A
:106D100014216846FFF7C8FA0024552504F0C6F987
:106D20000AF092F904F0E0FB642000F02BFF04F07D
:106D300029FD04F0BFFA04F0F1FA04F08FFB4FF4E0
:106D4000E13004F03FFC642000F01CFF01222649E2
:106D5000264803F06BFD06220021254804F0E0FCE4
:106D6000642000F00FFF04F05DF904F003FB04F071
:106D700037FB04F065FC0AF09BF81E4908700846D2
:106D8000007818B901241CA008F048FF0AF042FD61
:106D9000184908700846007818B902241BA008F0AA
:106DA0003DFF1E480BF0FAF91249087008460078BA
:106DB000012804D11AA008F031FF032402E01DA02D
:106DC00008F02CFF002115480BF0BEF9FFF75EFD1F
:106DD00004F088FC05461B488079202802D0012059
:106DE0001949087005B030BD5C050020AC0D0020CD
:106DF0006C050020E905002069636D3230363038BB
:106E0000206661696C200D0A000000006F70743309
:106E1000303031206661696C200D0A00741D00203D
:106E2000564C35334C3058204572726F72212121F7
:106E30000D0A0000564C35334C3058204F4B0D0A8C
:106E400000000000B00400201C00002010B54FF42A
:106E5000005000F05FFF10BD72B600BFFEE70000FB
:106E60002DE9F84F05460C464FF0000A002000902F
:106E7000FE49E068884200D000E000BF00BF95F8FE
:106E80005800012802D10220BDE8F88F012085F8C2
:106E9000580000BF286804F095F800287DD12968C3
:106EA000D4E9002001F1300CC0F3012B0CEB8B0373
:106EB000D3F800C000F01F0E4FF01F0B0BFA0EFBB3
:106EC0002CEA0B0C00F01F0BC2F3846E0EFA0BFEC3
:106ED0004CEA0E0CC3F800C000BF286804F072F83A
:106EE0008146286804F05FF88046B9F1000F64D14C
:106EF000B8F1000FFBD1A068B0F1004F0AD12168B2
:106F00000022286804F063F84FF00041286804F07C
:106F100083F808E0A2682168286804F058F8002186
:106F2000286804F079F860692968C968C1F3C1016B
:106F3000490000FA01F7206904283FD02868226838
:106F4000216900F1600C0CEB8103D3F800C0DFF87D
:106F500020B30CEA0B0C02F0F84B4BF0004B4BEA61
:106F6000070B4CEA0B0CC3F800C000BF2868A269ED
:106F7000216900F1600C0CEB8103D3F800C02CF008
:106F8000807C4CEA020CC3F800C000BF2868227F56
:106F90002169012A02D1520601E0F1E100221346E3
:106FA00000F1600C0CEB8102D2F800C02CF0007CE8
:106FB0004CEA030CC2F800C000BFA7E0002128681B
:106FC00003F0E8FFC0F3120030B90021286803F095
:106FD000E1FFC0F3846007E00021286803F0DAFFD6
:106FE00090FAA0F0B0FA80F02168C1F3120119B94B
:106FF0002168C1F3846104E0216891FAA1F1B1FA3A
:1070000081F1884204D100221146286803F0F9FF7B
:107010000121286803F0BEFFC0F3120030B901213E
:10702000286803F0B7FFC0F3846007E001212868F7
:1070300003F0B0FF90FAA0F0B0FA80F02168C1F33D
:10704000120119B92168C1F3846104E0216891FA41
:10705000A1F1B1FA81F1884204D10022012128680E
:1070600003F0CFFF0221286803F094FFC0F3120061
:1070700030B90221286803F08DFFC0F3846007E077
:107080000221286803F086FF90FAA0F0B0FA80F0A1
:107090002168C1F3120119B92168C1F3846104E0C8
:1070A000216891FAA1F1B1FA81F1884204D100225C
:1070B0000221286803F0A5FF0321286803F06AFF76
:1070C000C0F3120030B90321286803F063FFC0F356
:1070D000846007E00321286803F05CFF90FAA0F0C9
:1070E000B0FA80F02168C1F3120119B92168C1F327
:1070F000846104E0216891FAA1F1B1FA81F188423A
:1071000004D100220321286803F07BFF286803F0E4
:107110004FFF002872D12868E2682168D0F8B030AB
:10712000C1F3120C23EA0C0302F0180BDFF844C180
:107130002CFA0BFC0CEA010C43EA0C03C0F8B0304B
:1071400000BF4A49E068884258D12368C3F312035C
:107150001BB92368C3F3846304E0236893FAA3F3A1
:10716000B3FA83F35B1C03F01F03092B3ED823689B
:10717000C3F312031BB92368C3F3846304E02368D9
:1071800093FAA3F3B3FA83F35B1C03F01F034FF0EE
:10719000010C0CFA03FC2368C3F312031BB9236828
:1071A000C3F3846304E0236893FAA3F3B3FA83F38D
:1071B0005B1C03F01F034CEA836C2368C3F31203C8
:1071C0001BB92368C3F3846304E0236893FAA3F331
:1071D000B3FA83F35B1C03F01F0303EB43034FF08D
:1071E000000B4BEA03534CEA030347E02368C3F365
:1071F000120323B92368C3F3846305E043E02368E3
:1072000093FAA3F3B3FA83F35B1C03F01F034FF06D
:10721000010C0CFA03FC2368C3F312031BB92368A7
:10722000C3F3846304E0236893FAA3F3B3FA83F30C
:107230005B1C03F01F034CEA836C2368C3F3120347
:107240001BB92368C3F3846304E0236893FAA3F3B0
:10725000B3FA83F35B1C03F01F030A3B03EB430306
:107260004FF0007B4BEA035306E0000000007F4034
:1072700000F0FF03FFFF07004CEA03031946A26872
:10728000286803F0A4FE45492068084000287DD006
:107290002968B1F1A04F03D0414A2968914201D138
:1072A000404900E04049084603F06FFE06463F496A
:1072B0002068884203D03E492068884228D106F4DD
:1072C000000028BB2868B0F1A04F5FD12A68B2F156
:1072D000A04F03D0324B2A689A4201D1314A00E0D4
:1072E000314A104646F4000103F085FE314800683B
:1072F0003149B0FBF1F0401C00EB400080000090F1
:1073000002E00098401E009000980028F9D13DE06E
:107310002A492068884217D106F08070A0B92868F1
:10732000B0F1A04F32D12A68B2F1A04F03D01C4B6C
:107330002A689A4201D11B4A00E01B4A104646F0D7
:10734000807103F058FE21E01D49206888421DD15C
:1073500006F48000D0B912492868884216D02A68FD
:10736000B2F1A04F03D00B462A689A4201D10D4AD0
:1073700000E00D4A104646F4800103F03CFE05E0B3
:10738000E86D40F02000E8654FF0010A00BF0020E2
:1073900085F8580000BF504676E5000000000880E0
:1073A000000100500003005000070050000021C3FE
:1073B0001000C0900C060020400D0300000052C7D2
:1073C000000084CB2DE9F84304464FF0000800206C
:1073D000009014B90120BDE8F883606920B194F8E9
:1073E0002400012800D100BFE06D30B9204600F034
:1073F00035F90020206684F8580020688168C1F3C0
:10740000407131B1206881688B4A1140816000BFB2
:1074100000BF206803F0D1FDB0B920688168874AB9
:10742000114041F08051816000BF85480068854966
:10743000B0FBF1F0401C4000009002E00098401EBC
:10744000009000980028F9D1206803F0B6FD48B9F3
:10745000E06D40F01000E065206E40F00100206615
:107460004FF00108206803F0ADFD0646E06D00F026
:10747000100000287ED1002EFCD1E06D20F4807039
:1074800040F00200E065206803F092FD80BB2068B8
:10749000B0F1A04F03D06C492068884201D16B48FD
:1074A00000E06B48694988420AD14FF0A04003F0E0
:1074B0007FFD8146644803F07BFD49EA000002E05D
:1074C000644803F075FD98B92268B2F1A04F03D06B
:1074D0005D4B22689A4201D15C4A00E05C4A10464A
:1074E0006168826822F47C120A43826000BF00BF98
:1074F000607FE16B41EA4030E1680843A1680843DE
:1075000094F8241040EA014594F82400012803D19E
:10751000208D401E45EA4045E06A28B1A08D00F468
:107520007870216B084305432068C0684A490840C9
:1075300028432168C8602068006920F04060616BC2
:10754000084321680861206803F02DFD0746EEBB63
:10755000E7BB207F002141EA803194F8380041EAFE
:1075600040052068C06844F202018843284321682E
:10757000C86000E058E0206980B12068006940F4EC
:107580008030216808612068D0F8C0006FF30D00DA
:10759000216908432168C1F8C0000DE02068006936
:1075A00020F48030216808612068D0F8C0006FF3B3
:1075B0000D002168C1F8C00094F84000012813D1E3
:1075C000606C40F00101A06C084300E012E0E16C47
:1075D0000843216D08432168096940F2FC72914318
:1075E00008432168086105E02068006920F0010077
:1075F000216808616069012809D12068006B20F0CA
:107600000F00216A491E08432168086305E02068CD
:10761000006B20F00F0021680863E06D20F002008D
:1076200040F00100E06505E0E06D40F01000E0652D
:107630004FF001084046CEE6C0FFFF5FC0FFFF7F6E
:107640000C060020400D0300000100500003005014
:1076500000070050000400500740F0FF10B59AB03A
:107660000446142115A8FEF71FFE502101A8FEF7BD
:107670001BFE1B49206888422FD180010190C00366
:10768000129001A801F042FA08B1FFF7E5FB00BF34
:107690001448C06C40F480401249C8640846C06C6D
:1076A00000F48040009000BF00BF00BF0846C06CDF
:1076B00040F00200C8640846C06C00F00200009070
:1076C00000BF00BF4FF4005015900320169000201B
:1076D000179015A9044800F02BFB1AB010BD00004C
:1076E0000004005000100240000400480146002041
:1076F00091F82520022A03D00422CA63012027E042
:107700000A68126822F00E020B681A608A6C12680E
:1077100022F480728B6C1A600A68126822F00102EF
:107720000B681A6091F8442002F01F0301229A406E
:107730000B6C5A60D1E913325A604A6D42B14A6DFE
:10774000126822F480724B6D1A60D1E916325A60C9
:10775000012281F8252000BF002281F8242000BFEB
:10776000704770B50446002594F8250002280BD018
:107770000420E063012084F8250000BF002084F885
:10778000240000BF012534E02068006820F00E00CE
:10779000216808602068006820F001002168086006
:1077A000A06C006820F48070A16C086094F844001C
:1077B00000F01F0101208840216C4860D4E91310BB
:1077C0004860606D40B1606D006820F48070616D4C
:1077D0000860D4E916104860012084F8250000BF35
:1077E000002084F8240000BFA06B10B12046A16BDC
:1077F0008847284670BD000010B504460CB901202A
:1078000010BD2068006820F0010021680860274949
:10781000206888420BD226492068401A1421B0FB08
:10782000F1F0800060642248083820640AE01F49B3
:107830002068401A1421B0FBF1F0800060641B48FE
:107840000838206400202168086094F8440000F0A3
:107850001F0101208840216C48602046FFF7D0F9C5
:107860000020A16C0860D4E913104860606858B12A
:107870006068042808D82046FFF7E4F90020616D0D
:107880000860D4E91610486000206065A065E065D6
:10789000E06220636063A063E06384F8250000BFBA
:1078A00084F8240000BF00BFAAE7000008040240DB
:1078B0000800024070B50446206C05682068066820
:1078C00094F8440000F01F01042088402840E0B1F3
:1078D00006F00400C8B12068006800F0200028B954
:1078E0002068006820F004002168086094F84400D3
:1078F00000F01F0104208840216C4860206B0028A4
:1079000056D02046216B884752E094F8440000F09E
:107910001F0102208840284018B306F0020000B37F
:107920002068006800F0200040B92068006820F05E
:107930000A0021680860012084F8250094F84400BA
:1079400000F01F0102208840216C486000BF002029
:1079500084F8240000BFE06A50B32046E16A8847FB
:1079600026E094F8440000F01F01082088402840D9
:10797000F0B106F00800D8B12068006820F00E00D1
:107980002168086094F8440000F01F01012088403D
:10799000216C48600120E06384F8250000BF0020CE
:1079A00084F8240000BF606B10B12046616B8847EB
:1079B00070BD000070B504460CB9012070BD2F49A0
:1079C000206888420BD22E492068401A1421B0FB4F
:1079D000F1F0800060642A48083820640AE02749F2
:1079E0002068401A1421B0FBF1F080006064234845
:1079F00008382064022084F825002068056847F6CE
:107A0000F0708543D4E902010843216908436169A4
:107A10000843A1690843E1690843216A0843054313
:107A2000206805602046FFF7EBF8A068B0F5804FAE
:107A300001D1002060602079A16C0860D4E91310A6
:107A40004860606860B16068042809D82046FFF784
:107A5000F9F80020616D0860D4E91610486003E071
:107A600000206065A065E0650020E063012084F8E7
:107A70002500002084F8240000BF9FE7080402408E
:107A8000080002402DE9F04104460D4616461F4607
:107A90004FF0000800BF94F82400012802D1022012
:107AA000BDE8F081012084F8240000BF94F825008F
:107AB00001283FD1022084F825000020E0632068DF
:107AC000006820F00100216808603B4632462946E4
:107AD0002046FFF7C9F8206B30B12068006840F0FD
:107AE0000E00216808600BE02068006820F00400A8
:107AF000216808602068006840F00A00216808607A
:107B0000A06C006800F4803028B1A06C006840F4DC
:107B10008070A16C0860606D28B1606D006840F4F1
:107B20008070616D08602068006840F00100216885
:107B3000086006E000BF002084F8240000BF4FF07A
:107B400002084046ACE7000010B54FF0FF300C498A
:107B5000886300208863401E086400200864401E7B
:107B6000886200208862401EC8620020C862401EF1
:107B700008630020086300F037FE002010BD0000FD
:107B80000010024070B5044600F0D0F906462546C4
:107B9000681C10B104480068054400BF00F0C6F935
:107BA000801BA842FAD370BD08060020F0B50B4632
:107BB00000217DE001258D4005EA0302002A76D0F0
:107BC0003E4D8E0855F826408D072E0F0F25B540E7
:107BD0002C40B0F1904F01D1002519E0384DA8425A
:107BE00001D1012514E0374DA84201D102250FE053
:107BF000354DA84201D103250AE0344DA84201D1F8
:107C0000042505E0324DA84201D1052500E00625F6
:107C10008E07360FB540A54223D12E4D2D689543D2
:107C20002C4E3560351D2D689543361D3560294D28
:107C30000C352D689543274E0C363560351F2D6861
:107C40009543361F35608D072E0F0F2505FA06F474
:107C50001A4D8E0855F82650A543184E8F0846F841
:107C6000275005684F000326BE4035430560CE0807
:107C700000F1200555F826504E07F70E0F26BE409E
:107C8000B543CF0800F1200646F82750C5684F00DD
:107C90000326BE40B543C560456801268E40B54306
:107CA000456085684F000326BE40B5438560491C8A
:107CB00023FA01F5002D7FF47DAFF0BD08000140EF
:107CC0000004004800080048000C0048001000486C
:107CD000001400480004014070B504460025B4F5C6
:107CE000005F0FD14FF40051074800F007F948B981
:107CF00006488078012805D10548007810B9012090
:107D00000349087070BD000000080048B00400205E
:107D1000DC04002010B5044604480068204020B16F
:107D2000024804602046FFF7D7FF10BD140401404D
:107D300078B502460B460021CAE001268E401D6838
:107D400005EA0604002C73D01D7905F00305012D0A
:107D500004D01D7905F00305022D13D190684E0063
:107D60000325B540A8434E00DD68B5402843906028
:107D7000506801258D40A8431D79C5F300158D403D
:107D8000284350601D7905F00305032D09D0D06804
:107D90004E000325B540A8434E009D68B5402843DA
:107DA000D0601D7905F00305022D13D1CE0802F134
:107DB000200555F826004D07EE0E0F25B540A843C7
:107DC0004E07F60E1D69B5402843CE0802F1200586
:107DD00045F8260010684E000325B540A8431D79DC
:107DE00005F003054E00B540284310605D6805F4BA
:107DF0004035002D6BD000BF384D2D6E45F001058C
:107E0000364E356635462D6E05F00105009500BFEE
:107E100000BF4FEAB6358E0855F826008D072E0FA5
:107E20000F25B540A843B2F1904F02D100251AE0CA
:107E30004DE02B4DAA4201D1012514E0294DAA4263
:107E400001D102250FE0284DAA4201D103250AE005
:107E5000264DAA4201D1042505E0254DAA4201D1B3
:107E6000052500E006258E07360FB5402843214D35
:107E70008E0845F82600204D2868A0435D6805F46B
:107E8000801505B120431C4D28602D1D2868A04396
:107E90005D6805F4001505B12043174D2D1D2860C0
:107EA000154D2D1F2868A0435D6805F4003505B108
:107EB0002043114D2D1F28602D1F2868A0435D68A9
:107EC00005F4803505B120430B4D083D2860491C61
:107ED0001D68CD40002D7FF430AF78BD001002400A
:107EE0000004004800080048000C0048001000484A
:107EF00000140048080001400804014002461369CC
:107F00000B400BB1012000E00020704710B5426922
:107F100021EA020302EA010443EA0443836110BD3B
:107F20000AB1816100E08162704700000148006889
:107F30007047000000060020024692F84100202809
:107F40002DD100BF92F84000012801D102207047D6
:107F5000012082F8400000BF242082F84100106810
:107F6000006820F00100136818601068006820F4B1
:107F70008050136818601068006808431368186020
:107F80001068006840F0010013681860202082F833
:107F9000410000BF002082F8400000BFD7E7022068
:107FA000D5E710B502460B4692F8410020282AD1A9
:107FB00000BF92F84000012801D1022010BD01202D
:107FC00082F8400000BF242082F841001068006859
:107FD00020F00100146820601068016821F47061CD
:107FE00041EA0321106801601068006840F0010058
:107FF00014682060202082F8410000BF002082F831
:10800000400000BFDAE70220D8E710B504460CB9FB
:10801000012010BD242084F841002068006820F071
:10802000010021680860204600F0BEFA002060646C
:1080300084F84100206384F8420000BF84F84000C7
:1080400000BF00BFE5E7000010B504460CB90120F1
:1080500010BD94F8410028B9002084F84000204663
:1080600000F0D8FA242084F841002068006820F04D
:10807000010021680860606820F070602168086174
:108080002068806820F4004021688860E06801284A
:1080900005D1A06840F400402168886004E0A06831
:1080A00040F4044021688860E068022806D1206816
:1080B000406840F400602168486005E0206840683E
:1080C00020F4006021684860206840681349084334
:1080D000216848602068C06820F400402168C860BA
:1080E000D4E904010843A16940EA01202168C8607D
:1080F000D4E907010843216808602068006840F05F
:1081000001002168086000206064202084F841009C
:108110000020206384F8420000BF99E7008000023D
:108120002DE9FC4704460F4690461E46002001906C
:1081300094F84100202874D120688069C0F3C030D1
:1081400010B10220BDE8FC8700BF94F84000012870
:1081500001D10220F6E7012084F8400000BF24206E
:1081600084F841000020606400BFE068012806D167
:10817000C7F3090040F4005040F0007005E0C7F379
:10818000090040F4205040F0007021684860FFF77B
:10819000CDFE054620688069C0F3401920688069DB
:1081A000C0F3001A1DE0701C98B1FFF7BFFE401B22
:1081B000B04200D86EB9202084F84100606C40F0D5
:1081C0002000606400BF002084F8400000BF012050
:1081D000B8E720688069C0F3401920688069C0F35F
:1081E000001AB9F1000F02D1BAF1000FDBD02068FC
:1081F0008069C0F30010A8B9334600222021204630
:10820000009502F01FFE08B101209BE720202168A5
:10821000C86184F8410000BF002084F8400000BF1E
:1082200090E723E03346002220212046009502F00B
:1082300009FE08B1012085E710202168C8612020CF
:108240002168C8610198401C0190019840458CD379
:10825000202084F84100606C40F02000606400BF82
:10826000002084F8400000BF01206BE7022069E78E
:108270002DE9FC5F0446894692469B46DDE90C7871
:108280000E9E94F8410020287ED117B1B8F1000F5E
:1082900005D14FF4007060640120BDE8FC9F00BF71
:1082A00094F84000012801D10220F6E7012084F86B
:1082B000400000BFFFF73AFE054619230122D10313
:1082C0002046009502F0BEFD08B10120E5E722201E
:1082D00084F84100402084F8420000206064676216
:1082E000A4F82A8060635B46524649462046CDE9A1
:1082F000006502F00FFD30B100BF002084F840009F
:1083000000BF0120C9E7608DFF280CD9FF20208520
:108310003D48009094F828204FF08073494620464D
:1083200002F074FD0BE0608D20853748009094F8D2
:1083300028204FF000734946204602F067FD00BF39
:108340003346002204212046009502F07BFD08B14F
:108350000120A2E72068406A616A0870606A401CD8
:108360006062208D401E2085608D401E6085608D7E
:1083700048B3208D38BB334600228021204600952B
:1083800002F060FD18B100E03CE0012085E7608D5F
:10839000FF280CD9FF2020850020009094F8282089
:1083A0004FF080734946204602F030FD0BE0608DAF
:1083B00020850020009094F828204FF00073494653
:1083C000204602F023FD608D0028B9D12A463146AF
:1083D000204602F078FD08B101205EE720202168E8
:1083E000C861206840680949084021684860202029
:1083F00084F84100002084F8420000BF84F8400067
:1084000000BF4AE7022048E70024008000E800FEA1
:108410002DE9FC5F0446894692469B46DDE90C78CF
:108420000E9E94F8410020287DD117B1B8F1000FBD
:1084300005D14FF4007060640120BDE8FC9F00BFCF
:1084400094F84000012801D10220F6E7012084F8C9
:10845000400000BFFFF76AFD054619230122D10342
:108460002046009502F0EEFC08B10120E5E721204E
:1084700084F84100402084F8420000206064676274
:10848000A4F82A8060635B46524649462046CDE9FF
:10849000006502F07DFC30B100BF002084F8400090
:1084A00000BF0120C9E7608DFF280CD9FF2020857F
:1084B0000020009094F828204FF080734946204611
:1084C00002F0A4FC0BE0608D20850020009094F861
:1084D00028204FF000734946204602F097FC00BF69
:1084E0002A463146204602F01EFD08B10120A4E7CD
:1084F000606A007821688862606A401C6062608DF2
:10850000401E6085208D401E2085608D40B3208DEB
:1085100030BB3346002280212046009502F092FCB9
:1085200010B1012089E73AE0608DFF280CD9FF20C7
:1085300020850020009094F828204FF08073494651
:10854000204602F063FC0BE0608D20850020009047
:1085500094F828204FF000734946204602F056FC5C
:10856000608D0028BCD12A463146204602F0ABFC83
:1085700008B1012061E720202168C86120684068B7
:108580000849084021684860202084F84100002004
:1085900084F8420000BF84F8400000BF4DE702208D
:1085A0004BE7000000E800FE10B5044614492068BF
:1085B000884211D11348806D20F4800011498865EC
:1085C00089154FF09040FFF7F1FA4FF400714FF02A
:1085D0009040FFF7EBFA11E00B49206888420DD17B
:1085E0000848806D20F08040064988658915074855
:1085F000FFF7DCFA20210648FFF7D8FA10BD00008B
:108600000058004000100240007800400008004878
:108610000004004810B59AB00446142115A8FDF7CF
:1086200043FE502101A8FDF73FFE464920688842DD
:1086300034D1802001900020099001A800F066FA52
:1086400008B1FEF709FC00BF3F48C06C40F00100D4
:108650003D49C8640846C06C00F00100009000BFAE
:1086600000BF4FF440701590122016900020179014
:1086700018900420199015A94FF09040FFF758FB6F
:1086800000BF3148806D40F480002F49886508465E
:10869000806D00F48000009000BF50E02B492068FE
:1086A00088424CD18015019000200A9001A800F06A
:1086B0002DFA08B1FEF7D0FB00BF2348C06C40F094
:1086C00004002149C8640846C06C00F00400009012
:1086D00000BF00BF00BF0846C06C40F00200C86485
:1086E0000846C06C00F00200009000BF00BF881573
:1086F00015901220169000201790189008201990BD
:1087000015A91348FFF714FB20201590122016908E
:108710000020179018900820199015A90D48FFF710
:1087200007FB00BF0848806D40F08040064988651F
:108730000846806D00F08040009000BF00BF1AB076
:1087400010BD0000005800400010024000780040BA
:10875000000800480004004803480068034909680D
:108760000844014908607047000600200806002000
:1087700010B50024032000F0A9F8002000F008F84C
:1087800008B1012401E000F030F8204610BD0000DF
:1087900070B50446002511480068D8B10F4800683C
:1087A0004FF47A71B1FBF0F00D490968B1FBF0F6B6
:1087B000304601F04BF858B9102C07D20022214660
:1087C000501E00F045F80748046004E0012502E06F
:1087D000012500E00125284670BD000008060020A4
:1087E0000C060020040600207047704710B50146B3
:1087F0000846002817DB00F01F0301229A400B4BAC
:10880000440943F8242000BF00BF00BFBFF34F8FCF
:1088100000BF00BF00BF00BF00BF00BFBFF36F8F2E
:1088200000BF00BF00BF00BF10BD000080E100E03E
:1088300001460846002809DB00F01F0301229A4088
:1088400043099B0003F1E023C3F8002100BF7047F8
:108850002DE9F05F80460D46164607F0EFF9074612
:1088600039462A46334601F00700C0F1070ABAF13B
:10887000040F02D94FF0040A01E0C0F1070AD14603
:1088800000F1040ABAF1070F02D24FF0000A01E02A
:10889000A0F1030AD4464FF0010A0AFA09FAAAF134
:1088A000010A0AEA020A0AFA0CFA4FF0010B0BFA63
:1088B0000CFBABF1010B0BEA030B4AEA0B0421465C
:1088C000404607F0C3F9BDE8F09F000000BF00F08C
:1088D0000702064B19684FF6FF031940044B0B4380
:1088E00043EA0221014B196000BF70470CED00E024
:1088F0000000FA0502468ABB4148006800F4C060E7
:10890000B0F5806F2BD13E488030006820F4807035
:108910003B4BC3F880001846006820F4C06040F468
:10892000007018603748006832235843364BB0FB5C
:10893000F3F0411C00E0491E3148406900F48060BA
:10894000B0F5806F01D10029F5D12D48406900F4C0
:108950008060B0F5806F51D10320704708E028484F
:108960008030006820F48070254BC3F8800045E01B
:10897000B2F5007F3AD12248006800F4C060B0F53B
:10898000806F2AD11E488030006840F480701C4BF4
:10899000C3F880001846006820F4C06040F40070FE
:1089A00018601848006832235843174BB0FBF3F0A7
:1089B000411C00E0491E1248406900F48060B0F597
:1089C000806F01D10029F5D10D48406900F4806025
:1089D000B0F5806F12D10320BFE7094880300068EE
:1089E00040F48070064BC3F8800007E0044800683C
:1089F00020F4C06040F48060014B18600020ACE7B8
:108A0000007000400C06002040420F000C4909682D
:108A100021F007010A4A11600A49096841F004017E
:108A2000084A1160012801D130BF02E040BF20BFD9
:108A300020BF0449096821F00401024A116070470F
:108A40000070004010ED00E00D49096821F00701B9
:108A5000491C0B4A11600B49096841F00401094A9D
:108A60001160012801D130BF02E040BF20BF20BF0C
:108A70000449096821F00401024A116070470000AE
:108A80000070004010ED00E00349896800F01F020B
:108A90009143014A91607047007000400849C968DD
:108AA00000F01F02914341EA5011054AD16011467E
:108AB000896800F01F021143014A9160704700006D
:108AC000007000400848006820F00700C01C0649FC
:108AD00008600648006840F004000449086000BFD0
:108AE00000BF30BF704700000070004010ED00E094
:108AF00070B505460C46B5F5804F03D12046FFF70B
:108B0000A3FF02E02046FFF781FF70BD2DE9F84387
:108B100004460026B046206800F40020B0F5002F7F
:108B200073D1B146F548806D00F0805078B900BF30
:108B3000F248806D40F08050F04988650846806DAD
:108B400000F08050009000BF00BF4FF00109EC48DA
:108B5000006840F48070EA490860FFF7E7F90746CB
:108B600006E0FFF7E3F9C01B022801D9032605E060
:108B7000E348006800F480700028F2D000BF002EA7
:108B800046D1DE489030006800F44075CDB1E06C0D
:108B9000A84216D0D9489030006820F44075D748D4
:108BA000D0F8900040F48030D449C1F890000846D5
:108BB000D0F8900020F48030C1F890000846C0F84A
:108BC000905005F00100A0B1FFF7B0F9074608E0AA
:108BD000FFF7ACF9C01B41F28831884201D9032666
:108BE00006E0C6489030006800F002000028EFD090
:108BF00000BF5EB9C1489030006820F44070E16C5D
:108C00000843BE49C1F8900003E00CE0B04600E024
:108C1000B046B9F1010F05D1B848806D20F0805001
:108C2000B649886500BF207800F0010048B1B3481C
:108C30008830006820F0030061680843AF49C1F83C
:108C40008800207800F00200022809D1AB48883063
:108C5000006820F00C00A1680843A849C1F888000A
:108C6000207800F00400042809D1A4488830006866
:108C700020F03000E1680843A049C1F8880020785E
:108C800000F00800082809D19C488830006820F0CE
:108C9000C000216908439949C1F88800207800F094
:108CA0001000102809D195488830006820F44070E1
:108CB000616908439149C1F88800207800F02000DC
:108CC000202809D18D488830006820F44060A169CF
:108CD00008438A49C1F88800207800F04000402805
:108CE00009D186488830006820F44050E169084383
:108CF0008249C1F88800207800F08000802809D1DE
:108D00007E488830006820F44040216A08437B494F
:108D1000C1F88800208800F48070B0F5807F09D108
:108D200076488830006820F44030616A084373490F
:108D3000C1F88800208800F40070B0F5007F09D1E8
:108D40006E488830006820F44020A16A08436B49CF
:108D5000C1F88800208800F48060B0F5806F13D1DE
:108D600066488830006820F44010E16A084363498F
:108D700088310860E06AB0F5801F05D15F48C0689F
:108D800040F480105D49C860208800F40060B0F5B0
:108D9000006F13D159488830006820F44000216BDF
:108DA0000843564988310860206BB0F5800F05D123
:108DB0005248C06840F480105049C860208800F4D0
:108DC0008050B0F5805F13D14C488830006820F0A7
:108DD0004070616B0843494988310860606BB0F1AD
:108DE000807F05D14548C06840F480104349C86081
:108DF000208800F40050B0F5005F13D13F48883060
:108E0000006820F04060A16B08433C49883108604D
:108E1000A06BB0F1006F05D13848C06840F48010F5
:108E20003649C860208800F48040B0F5804F13D1E7
:108E300032488830006820F04060E16B08432F49D9
:108E400088310860E06BB0F1006F05D12B48C06835
:108E500040F480102949C860208800F40040B0F533
:108E6000004F13D125488830006820F04050216C15
:108E70000843224988310860206CB0F1805F05D139
:108E80001E48C06840F480301C49C860206800F467
:108E90008030B0F5803F13D118488830006820F04A
:108EA0004040616C0843154988310860606CB0F13E
:108EB000804F05D11148C06840F480300F49C86028
:108EC000206800F48020B0F5802F13D10B489C302F
:108ED000006820F44010A16C084308499C310860E8
:108EE000A06CB0F5001F05D10448C06840F48010A4
:108EF0000249C8604046BDE8F88300000010024007
:108F0000007000402DE9F04104460D464FF0000886
:108F100014B90120BDE8F0817D48006800F00F0021
:108F2000A8420ED27A48006820F00F002843784902
:108F300008600846006800F00F00A84201D0012038
:108F4000E8E7207800F00100002864D0606803287A
:108F500023D17048006800F0007008B90120D9E7FB
:108F600002F08CFB06466C48864237D96948806817
:108F700000F0F00030B1207800F0020002282DD17E
:108F8000A06858BB6348806820F0F00040F0800083
:108F9000604988604FF0800820E06068022806D1B0
:108FA0005C48006800F4003040B90120B2E759483D
:108FB000006800F4806008B90120ABE700F04CF9CC
:108FC00006465548864209D95248806820F0F0008C
:108FD00040F080004F4988604FF080084D4880681D
:108FE00020F00300616808434A498860FEF79EFF4D
:108FF000074608E0FEF79AFFC01B41F2883188421D
:1090000001D9032086E74348806800F00C006168BE
:10901000B0EB810FEED1207800F00200022820D1C1
:10902000207800F00400042805D13A48806840F414
:10903000E06038498860207800F00800082807D1EF
:109040003448806820F4605040F4E0603149886022
:109050003048806820F0F000A16808432D498860FE
:1090600008E0B8F1800F05D12A48806820F0F000B0
:10907000284988602648006800F00F00A84219D9E6
:109080002348006820F00F00284321490860FEF7BC
:109090004DFF074608E0FEF749FFC01B41F288314B
:1090A000884201D9032035E71948006800F00F0015
:1090B000A842F0D1207800F00400042807D1154818
:1090C000806820F4E060E1680843124988602078F5
:1090D00000F00800082808D10E48806820F460508D
:1090E000216940EAC1000B49886000F0B5F80949E0
:1090F0008968C1F30311094A515C01F01F01C8409E
:109100000749086007480068FFF742FB02E70000D4
:10911000002002400010024000B4C40428300108BE
:109120000C0600200406002010B5FEF7FFFE0446E2
:109130003048006840F480702E49086006E0FEF771
:10914000F5FE001B022801D9032010BD2948006844
:1091500000F480600028F2D02648406840F080404B
:1091600024494860FEF7E2FE044601202149886058
:1091700008E0FEF7DBFE001B41F28831884201D98E
:109180000320E2E71B48806800F00C000428F0D1BF
:1091900019481A4908601A480068FFF7F9FA08B137
:1091A0000120D2E74FF48070124908600860FEF792
:1091B000BDFE044606E0FEF7B9FE001B022801D9F9
:1091C0000320C2E70B48006800F000700028F2D1CD
:1091D0004FF480500749C86000208861401E086233
:1091E00004489430006840F40000C1F89400002066
:1091F000ABE70000001002400024F4000C06002041
:109200000406002001480068704700000C0600209A
:1092100000B5FFF7F7FF05498968C1F30221044A49
:10922000515C01F01F01C84000BD00000010024069
:109230003830010800B5FFF7E5FF05498968C1F33B
:10924000C221044A515C01F01F01C84000BD00006A
:10925000001002403830010870B5224DAD6805F0AD
:109260000C05042D01D120483AE01E4DAD6805F0F3
:109270000C05082D01D11D4832E01A4DAD6805F0EE
:109280000C050C2D2BD1174DED6805F00304154D81
:10929000ED68C5F303156A1C022C0CD0032C09D110
:1092A000124DB5FBF2F50F4EF668C6F3062605FB28
:1092B00006F10AE000BF0C4DB5FBF2F5094EF66869
:1092C000C6F3062605FB06F100BF00BF054DED689D
:1092D000C5F341656D1C6B00B1FBF3F000E00020AD
:1092E00070BD0000001002400024F40000127A005B
:1092F0002DE9F843044614B90120BDE8F88320782D
:1093000000F00100002865D0FC48806800F00C07E0
:10931000FA48C06800F003060C2F01D1032E01D0DB
:10932000082F0AD1F548006800F40030002851D019
:10933000606800284ED10120DFE700BF6068B0F50B
:10934000803F06D1ED48006840F48030EB4908606A
:109350001AE06068B0F5A02F0BD1E848006840F42F
:109360008020E64908600846006840F480300860C4
:109370000AE0E248006820F48030E04908600846CE
:10938000006820F48020086000BF606888B1FEF7A4
:10939000CDFD054606E0FEF7C9FD401B642801D956
:1093A0000320AAE7D548006800F400300028F2D076
:1093B00010E0FEF7BBFD054606E0FEF7B7FD401BDB
:1093C000642801D9032098E7CC48006800F40030F5
:1093D0000028F2D1207800F00200022860D1C748AE
:1093E000806800F00C07C548C06800F003060C2F29
:1093F00001D1022E01D0042F18D1C048006800F41A
:10940000806018B1E06808B9012076E7BB48406881
:1094100020F0FE40217C40EA0160B8494860B8482D
:109420000068FFF7B5F918B3012066E7E06800B3FC
:10943000B248006840F48070B0490860FEF776FDDD
:10944000054606E0FEF772FD401B022801D9032005
:1094500053E7AA48006800F480600028F2D0A748CB
:10946000406820F0FE40217C40EA0160A34948604A
:1094700016E0A248006820F48070A0490860FEF75A
:1094800055FD054606E0FEF751FD401B022801D9B7
:10949000032032E79948006800F480600028F2D188
:1094A000207800F00800082836D16069D0B19348D0
:1094B0009430006840F001009049C1F89400FEF734
:1094C00035FD054606E0FEF731FD401B022801D9B7
:1094D000032012E789489430006800F00200002859
:1094E000F1D019E085489430006820F001008349EC
:1094F000C1F89400FEF71AFD054606E0FEF716FDDA
:10950000401B022801D90320F7E67C48943000680C
:1095100000F002000028F1D1207800F004000428B7
:1095200072D14FF000087548806D012121EA10705A
:1095300078B100BF7148806D40F080506F498865F8
:109540000846806D00F08050009000BF00BF4FF0D3
:1095500001086C48006800F48070B0B96948006880
:1095600040F4807067490860FEF7E0FC054606E0BD
:10957000FEF7DCFC401B022801D90320BDE6614850
:10958000006800F480700028F2D000BFA0680128B5
:1095900008D15A489030006840F001005749C1F89E
:1095A000900021E0A06805280FD154489030006851
:1095B00040F004005149C1F890000846D0F89000EE
:1095C00040F00100C1F890000EE04C489030006877
:1095D00020F001004949C1F890000846D0F89000F9
:1095E00020F00400C1F8900000BFA068A8B1FEF709
:1095F0009DFC054609E0FEF799FC401B41F28831CD
:10960000884202D9032078E625E03C489030006883
:1096100000F002000028EED013E0FEF787FC0546BC
:1096200008E0FEF783FC401B41F28831884201D9F3
:10963000032062E631489030006800F00200002804
:10964000EFD1B8F1010F05D12C48806D20F080508A
:109650002A49886500BF207800F02000202836D1F4
:10966000A069D0B125489830006840F00100234936
:10967000C1F89800FEF75AFC054606E0FEF756FCD6
:10968000401B022801D9032037E61C4898300068A7
:1096900000F002000028F1D019E018489830006866
:1096A00020F001001549C1F89800FEF73FFC05467F
:1096B00006E0FEF73BFC401B022801D903201CE614
:1096C0000E489830006800F002000028F1D1E069EF
:1096D000002860D00948806800F00C000C287AD07F
:1096E000E069022858D10548006820F080700349DD
:1096F0000860FEF71BFC05460DE00000001002406C
:109700000406002000700040FEF710FC401B0228F9
:1097100001D90320F1E54A48006800F000700028F4
:10972000F2D1D4E90810401E41EA0011A06A41EAD2
:109730000021208E0122C2EB500041EA405134202A
:10974000005DC2EB500041EA40612C20005D41EA1F
:10975000C0603B49C9683B4A114008433849C8606A
:109760000846006840F0807008600846C06840F015
:109770008070C860FEF7DAFB054606E0FEF7D6FB10
:10978000401B022801D90320B7E52D48006800F0EE
:1097900000700028F2D051E02948006820F0807065
:1097A00027490860FEF7C2FB054606E0FEF7BEFB50
:1097B000401B022801D903209FE52148006800F0E2
:1097C00000700028F2D11E48C0681F4908401C499B
:1097D000C86033E0FFE7E069012800D18DE5184853
:1097E000C66806F00301206A814225D106F0F00127
:1097F000606A401EB1EB001F1ED106F4FE41A06A54
:10980000B1EB002F18D106F078412C20005DB1EBB0
:10981000C06F11D106F4C001208E0122C2EB5000AE
:10982000B1EB405F08D106F0C0613420005DC2EBAF
:109830005000B1EB406F01D001205EE500205CE5F7
:10984000001002400C809F01FCFFEEFE70B5044644
:109850002546681EB0F1807F01D301200FE0681E0D
:109860004FF0E02148610F214FF0FF3006F0EEF994
:1098700000204FF0E021886107200861002070BDC2
:1098800070477047704770477047704730B5024661
:109890000B4600BF92F83C00012801D1022030BDE8
:1098A000012082F83C0000BF022082F83D001068D1
:1098B000416810688468214D1068A84207D0204D87
:1098C0001068A84203D01F4D1068A84203D121F4AC
:1098D0007001586801431C48014018680143106832
:1098E0004160164D1068A84217D01068B0F1804F43
:1098F00013D0164D1068A8420FD0154D1068A8421D
:109900000BD00F4D1068A84207D0124D1068A84226
:1099100003D00C4D1068A84205D124F0800498684B
:10992000044310688460012082F83D0000BF0020DD
:1099300082F83C0000BF00BFB1E70000002C0140EE
:1099400000340140005001408FFFFFFD0004004043
:109950000008004000400140704710B504460CB9B3
:10996000012010BD94F83D0028B9002084F83C0087
:10997000204600F029F8022084F83D00211D2068CF
:1099800002F014F8012084F8480000BF84F83E007B
:1099900001213F2001554020015541200155422021
:1099A00001554320015500BF00BF012084F8440049
:1099B00045200155462001554720015500BF012093
:1099C00084F83D000020CCE738B504461A492068E9
:1099D000884216D100BF1948806D40F01000174929
:1099E00088650846806D00F01000009000BF00BF41
:1099F000022200213620FEF72BFF3620FEF718FF4B
:109A000019E00F492068884215D100BF0B48806DCE
:109A100040F02000094988650846806D00F020006C
:109A2000009000BF00BF022200213720FEF710FF88
:109A30003720FEF7FDFE38BD001000400010024048
:109A400000140040014691F83D00012801D001209A
:109A50007047022081F83D000868C06840F00100AE
:109A60000B68D8601A4B0868984217D00868B0F1A4
:109A7000804F13D0174B086898420FD0164B0868D8
:109A800098420BD0154B0868984207D0144B0868D1
:109A9000984203D0134B0868984210D10868806838
:109AA000114B00EA0302062A0FD0B2F5803F0CD01A
:109AB0000868006840F001000B68186005E008685D
:109AC000006840F001000B6818600020C0E700004B
:109AD000002C014000040040000800400034014018
:109AE000004001400050014007000100704770B580
:109AF00004462068C6682068056905F0020002284F
:109B000019D106F00200022815D1401F2168086112
:109B1000012020772068806900F0030018B12046FA
:109B2000FFF7E4FF05E0204600F0F1F8204600F0E2
:109B3000EFF80020207705F00400042819D106F082
:109B40000400042815D1C043216808610220207751
:109B50002068806900F4407018B12046FFF7C6FF06
:109B600005E0204600F0D3F8204600F0D1F80020B0
:109B7000207705F00800082819D106F00800082809
:109B800015D1C04321680861042020772068C0698E
:109B900000F0030018B12046FFF7A8FF05E02046BB
:109BA00000F0B5F8204600F0B3F80020207705F06B
:109BB0001000102819D106F01000102815D1C0434C
:109BC00021680861082020772068C06900F440708F
:109BD00018B12046FFF78AFF05E0204600F097F80D
:109BE000204600F095F80020207705F0010048B1EC
:109BF00006F0010030B16FF00100216808612046D5
:109C000000F088F805F08000802804D005F40050AA
:109C1000B0F5005F0AD106F08000802806D16FF40D
:109C20000250216808612046FFF72BFE05F4807082
:109C3000B0F5807F0AD106F08000802806D16FF44D
:109C40008070216808612046FFF71AFE05F0400089
:109C5000402809D106F04000402805D1C0432168C2
:109C60000861204600F0B6F905F02000202809D14F
:109C700006F02000202805D1C04321680861204655
:109C8000FFF700FE05F48010B0F5801F0BD106F43D
:109C90008010B0F5801F06D16FF480102168086134
:109CA0002046FFF7F1FD05F40010B0F5001F0BD1C1
:109CB00006F40010B0F5001F06D16FF40010216803
:109CC00008612046FFF7DFFD05F48000B0F5800F46
:109CD0000BD106F48000B0F5800F06D16FF4800040
:109CE000216808612046FFF7D0FD05F40000B0F5BB
:109CF000000F0BD106F40000B0F5000F06D16FF491
:109D00000000216808612046FFF726FE70BD7047FD
:109D10007047000010B50446A248844273D1A2489F
:109D2000C078012805D1A0488088401C9E498880C1
:109D300002E000209C4988809C480078012877D167
:109D40009B480078401C9A4908709A484088B0F5B2
:109D5000967F05DB0020974948800120087004E0C9
:109D600094484088401C934948808F48007800F010
:109D7000010068B1002090490880012211038F483A
:109D8000FEF7CEF800224FF400618C48FEF7C8F8C9
:109D900085480078C0F34000C0B187480088401C67
:109DA00085490880084600881E285CDB0020088062
:109DB000012211038148FEF7B3F8002080490870A2
:109DC0004FF400617D48FEF7A1F84CE0764800783A
:109DD000C0F38000C0B178480088401C76490880F4
:109DE00008460088A6283EDB0020088074490870D9
:109DF000012211037148FEF793F84FF400616F4898
:109E0000FEF784F82FE082E067488079102810D1AF
:109E1000002201026948FEF783F8002068490870B3
:109E2000654908800122D1026448FEF779F81AE0FA
:109E300069E05D488079202815D15F480088401C82
:109E40005D4908800846008864280CDB4FF4805187
:109E50005A48FEF75BF80122D1025848FEF760F835
:109E60000020554908805048C079012805D14E4846
:109E70000089401C4C49088102E000204A490881C1
:109E80004948807A012805D14748C068401C4649A6
:109E9000C86002E000204449C8604348007C0128B3
:109EA00005D14148408A401C3F49488202E00020D9
:109EB0003D4948823C48007D012805D13A48C08A86
:109EC000401C3949C88202E000203749C882364820
:109ED000007E012805D13448408B401C324948831C
:109EE00002E00020304948832F4890F824000128E0
:109EF00005D12D48C08C401C2B49C88450E000205F
:109F00002949C8844CE000202B49088048E02D48AE
:109F1000844245D125480078012804D1244800789E
:109F2000401C234908702048007F012805D11E48A5
:109F3000C08B401C1C49C88302E000201A49C8831A
:109F40002148807C012805D11F48808A401C1E4979
:109F5000888202E000201C498882134890F8200083
:109F6000012818D11048408C401C0F4948841748DC
:109F70000078322809DD1448C07930B9144808F057
:109F8000D7F80020114908700AE010480078401CFA
:109F90000E49087004E00020034948840B4908700A
:109FA00010BD0000E00B0020B00400208805002058
:109FB0002700002000000020F805002000080048CD
:109FC000FA0500202C0C002054050020FC05002080
:109FD0001F2F01087047014600BF91F88400012837
:109FE00001D102207047012081F8840000BF2420A5
:109FF000C1F88800086802680868006820F001005D
:10A000000B68186022F00052002048660868026061
:10A010002020C1F8880000BF002081F8840000BF24
:10A0200000BFDFE77047704770B504460D4600BFBC
:10A0300094F88400012801D1022070BD012084F829
:10A04000840000BF2420C4F88800206806682068C7
:10A05000006820F00100216808602068806820F016
:10A060006060284321688860204601F00FFD206869
:10A0700006602020C4F8880000BF002084F8840017
:10A0800000BF00BFD9E770B504460D4600BF94F885
:10A090008400012801D1022070BD012084F88400D1
:10A0A00000BF2420C4F88800206806682068006883
:10A0B00020F00100216808602068806820F060407E
:10A0C000284321688860204601F0E0FC2068066093
:10A0D0002020C4F8880000BF002084F8840000BF5E
:10A0E00000BFD9E77047704710B504460CB901208E
:10A0F00010BD2420C4F888002068006820F001000A
:10A100002168086000202168086021684860216893
:10A110008860204600F034FA00206C346062E06110
:10A120002062206060606C3C00BF84F8840000BF47
:10A1300000BFDDE7704700002DE9F04704462068C6
:10A14000C569206806682068876840F60F0005EA40
:10A150000009B9F1000F0FD105F0200060B106F041
:10A16000200010B907F0805030B1606F10B1204668
:10A17000616F8847BDE8F087B9F1000F7ED0DF48F6
:10A18000384018B9DE4830400028F7D005F001000B
:10A1900058B106F4807040B1012021680862D4F8FB
:10A1A000900040F00100C4F8900005F0020058B1A2
:10A1B00007F0010040B1022021680862D4F8900045
:10A1C00040F00400C4F8900005F0040058B107F016
:10A1D000010040B1042021680862D4F8900040F0EA
:10A1E0000200C4F8900005F0080070B106F02000ED
:10A1F00010B9C248384040B1082021680862D4F83C
:10A20000900040F00800C4F8900005F4006060B1D0
:10A2100006F0806048B14FF4006021680862D4F80D
:10A22000900040F02000C4F89000D4F8900000287E
:10A2300052D005F0200050B106F0200010B907F010
:10A24000805020B1606F10B12046616F8847D4F80C
:10A2500090A02068806800F04000402802D00AF0FA
:10A26000280070B3204601F099FD2068806800F056
:10A270004000402826D100BF00BF00E02DE021684B
:10A28000083151E8001F21F040002168083141E801
:10A290000002002AF1D100BFD4F8800068B19948CB
:10A2A000D4F880108863D4F88000FDF75AFA98B18A
:10A2B000D4F88000816B88470EE02046FFF73AFF14
:10A2C0000AE003E02046FFF735FF05E02046FFF7F0
:10A2D00031FF0020C4F890004CE7E06E012865D102
:10A2E00005F01000002861D006F010000028FAD018
:10A2F0001020216808622068806800F04000402833
:10A300007AD1D4F88000006840681FFA80F8B8F16C
:10A31000000F5CD0B4F85C00404558DDA4F85E80C6
:10A32000D4F880000068006800F02000E8BB00BF9F
:10A3300000BF216851E8001F21F48070226842E8C4
:10A3400000010029F5D100BF00BF00BF216808311E
:10A3500051E8001F21F001002168083141E80002A6
:10A36000002AF3D100BF00BF00BF2168083151E8C7
:10A37000001F21F040002168083141E80002002A56
:10A38000F3D100BF2020C4F88C000020E06600BF9D
:10A3900000BF216851E8001F21F01000226842E848
:10A3A00000010029F5D100BF01E004E068E0D4F825
:10A3B0008000FDF79BF902202067B4F85C00B4F838
:10A3C0005E20801A81B22046FFF72CFE12E0B4F81E
:10A3D0005C0040450ED1D4F880000068006800F0B1
:10A3E0002000202806D102202067B4F85C10204607
:10A3F000FFF718FEBEE6FFE734F85C0F6188401AED
:10A400001FFA80F860885C3CC8B3B8F1000F36D002
:10A4100000BF00BF216851E8001F21F4907022683E
:10A4200042E800010029F5D100BF00BF00BF21684C
:10A43000083151E8001F314AD24301EA0200216885
:10A44000083141E80002002AF1D100BF2020C4F801
:10A450008C000020E066606700BF00BF216851E803
:10A46000001F21F01000226842E800010029F5D108
:10A4700000BF0220206741462046FFF7D3FD79E662
:10A4800005F4801050B107F4800038B14FF480100B
:10A49000216808622046FFF726FE6BE605F0800083
:10A4A00058B106F0800010B907F4000028B1A06F81
:10A4B00010B12046A16F88475CE605F0400030B13E
:10A4C00006F0400018B1204601F09EFC52E605F46B
:10A4D000000030B106F0804018B12046FFF702FEC0
:10A4E00048E605F0807030B106F0004018B1204613
:10A4F000FFF799FD3EE600BF3CE6000001000010BA
:10A5000020010004C7BC000810B504460CB90120A6
:10A5100010BDA06900B100E000BFD4F8880028B9E0
:10A52000002084F88400204600F078F82420C4F845
:10A5300088002068006820F0010021680860A06A97
:10A5400010B1204601F0CEFA204601F097FF012815
:10A5500000D1DDE72068406820F490402168486021
:10A560002068806820F02A002168886020680068E0
:10A5700040F0010021680860204601F02FFBC7E78A
:10A5800010B504461F492068884211D11E48006E4C
:10A5900020F480401C49086640211C48FDF706FB5A
:10A5A00080211A48FDF702FB2520FEF71FF927E05E
:10A5B0001749206888420AD11348806D20F4003082
:10A5C0001149886518211148FDF7F0FA18E0114982
:10A5D0002068884214D10C48806D20F480200A49FC
:10A5E000886589150948FDF7E1FA4FF480610A484A
:10A5F000FDF7DCFAE06FFDF7FFF82720FEF7F6F82D
:10A6000010BD000000380140001002400004004866
:10A6100000440040004800400008004810B59AB0CF
:10A620000446142115A8FBF73FFE502101A8FBF7B3
:10A630003BFE7649206888423AD1012001900020F3
:10A64000029001A8FEF762FA08B1FCF705FC00BF12
:10A650006F48006E40F480406D4908660846006E01
:10A6600000F48040009000BF00BF00BF0846C06CEF
:10A6700040F00200C8640846C06C00F00200009080
:10A6800000BF00BFC0201590022016900020179038
:10A6900018900720199015A95E48FDF749FB002284
:10A6A00011462520FEF7D4F82520FEF7C1F8AAE0D0
:10A6B00059492068884232D102200190002003903D
:10A6C00001A8FEF723FA08B1FCF7C6FB00BF50480B
:10A6D000806D40F400304E4988650846806D00F476
:10A6E0000030009000BF00BF00BF0846C06C40F0C3
:10A6F0000200C8640846C06C00F00200009000BF71
:10A7000000BF182015900220169000201790189076
:10A710000720199015A93F48FDF70AFB73E03F4950
:10A72000206888426FD1042001900020049001A885
:10A73000FEF7ECF908B1FCF78FFB00BF3448806DE1
:10A7400040F48020324988650846806D00F48020FE
:10A75000009000BF00BF00BF0846C06C40F004007E
:10A76000C8640846C06C00F00400009000BF00BF41
:10A7700000BF0846C06C40F00200C8640846C06CC8
:10A7800000F00200009000BF00BF88151590022065
:10A7900016900020179018900720199015A91D48B1
:10A7A000FDF7C6FA4FF48060159002201690002045
:10A7B000179018900720199015A91948FDF7B8FAB5
:10A7C0001848194908601D2048601021164881600A
:10A7D0000021C16080210161002141618161C1616D
:10A7E0000162FDF7E7F808B1FCF736FB00BF0E4841
:10A7F000E067846200BF012200212720FEF728F8CD
:10A800002720FEF715F81AB010BD000000380140EF
:10A81000001002400004004800440040004800408E
:10A820000008004808000240400E002070B50446B1
:10A830000D461646D4F88C00202821D105B10EB95A
:10A84000012070BD0020E0660E492068884211D0CA
:10A850002068406800F4000060B100BF00BF2168BC
:10A8600051E8001F41F08060226842E800010029A1
:10A87000F5D100BF32462946204601F0E3FFE0E76C
:10A880000220DEE70080004010B5044643488442C1
:10A8900014D1002004E04249095C424A1154401C92
:10A8A000414909788842F6DB3F4802783C493B48F9
:10A8B000FFF7BCFF01203D4908706DE03C48844231
:10A8C0006AD101203B498870002008803A48017A0B
:10A8D0003848B0F80320B0F80300401C354BA3F80B
:10A8E0000300581D815434490A7A0888411C324BB0
:10A8F00019801946C9680A541846008840F2FF3189
:10A90000884202DB0020194608802B480079002885
:10A910003AD12948C078B0BB2848007830B1012826
:10A920000CD0022812D003282CD117E02248007A3C
:10A930000D2802D101202149087023E01E48007A29
:10A940000A2802D102201D4908701BE01A48007A2B
:10A950000D2802D103201949087013E01648007A27
:10A960000A280ED1002015490870002212490888D3
:10A97000411C114B19801946C9680A540120194617
:10A98000C87000BF02E0FFE70B48007901220A49C6
:10A9900008310748FFF74AFF10BD0000840C002073
:10A9A000651700208D170020440000204200002081
:10A9B000AC0D0020A423002054050020FD0500203C
:10A9C0002DE9F84F04460E4617469946D4F88800FC
:10A9D000202854D106B117B90120BDE8F88F002016
:10A9E0005434E06321206063FDF7A0FA824627809B
:10A9F0006780543CA068B0F5805F04D1206910B92D
:10AA00000025B04602E035464FF0000820E05346EE
:10AA1000002280212046CDF8009001F0C1FF20B136
:10AA20002020C4F888000320D7E745B9B8F8000013
:10AA3000C0F308002168886208F1020803E0287862
:10AA4000216888626D1CB4F85600401EA4F85600B8
:10AA5000B4F856000028DAD153460022402120469F
:10AA6000CDF8009001F09CFF20B12020C4F88800B0
:10AA70000320B2E72020C4F888000020ADE70220C0
:10AA8000ABE7000070B504460E461546D4F88800C2
:10AA900020283FD106B10DB9012070BD44F8506F98
:10AAA000A580E580002020642120A063E06A503C5E
:10AAB000E0B11948E16FC8621848E16F08631848AF
:10AAC000E16F48630020E16F8863236803F1280287
:10AAD0002B46216DE06FFCF7D5FF38B11020C4F88C
:10AAE00090002020C4F888000120D6E7402021688B
:10AAF000086200BF00BF2168083151E8001F41F023
:10AB000080002168083141E80002002AF3D100BF2B
:10AB10000020C2E70220C0E739BD00088FBD000851
:10AB2000DBBC00080349884202D10121024A1170AE
:10AB300070470000AC0D002080050020704710B564
:10AB400004460CB9012010BD204600F00EF8E06864
:10AB500040F0800021680860616820690843A168AE
:10AB60000843216848600020EDE7704701460A6805
:10AB7000C86810600020704700BF00BF00BF00BF62
:10AB800000BFBFF34F8F00BF00BF00BF0948006880
:10AB900000F4E06008490843001D0649086000BF52
:10ABA00000BF00BFBFF34F8F00BF00BF00BF00BF9B
:10ABB00000BFFDE70CED00E00000FA0501688969BF
:10ABC000C1F3400111B100210268916201688969F5
:10ABD00001F0010129B90168896941F001010268A8
:10ABE000916170472DE9F74F04460E460027206813
:10ABF000D0F818800025DDF8089008F01000102823
:10AC000045D12168C86134E0701C90B3FDF78EF91E
:10AC1000A0EB0900B04200D85EBB2068406800F499
:10AC2000804A94F842B020688069C0F3C03070B1A7
:10AC3000BAF5804F0BD0BBF1200F08D020684068D8
:10AC400040F4804021684860FDF770F9814609E0D2
:10AC5000FDF76CF9A0EB0900192803D945F0200590
:10AC6000012705E020688069C0F340100028EFD07C
:10AC700000BF20688069C0F3401008B9002FC3D01E
:10AC800017B920202168C86145F004050127206814
:10AC9000D0F8188008F48070B0F5807F06D145F0B8
:10ACA00001054FF480702168C861012708F48060B5
:10ACB000B0F5806F06D145F008054FF4806021683B
:10ACC000C861012708F40070B0F5007F06D145F097
:10ACD00002054FF400702168C8610127AFB120461A
:10ACE000FFF76CFF20684068094908402168486008
:10ACF000606C28436064202084F84100002084F8C0
:10AD0000420000BF84F8400000BF3846BDE8FE8F17
:10AD100000E800FE2DE9F8430446894615461E4624
:10AD2000DDE908781948F2B2002349460090204630
:10AD300000F06CF842463946204600F0F4F810B1B5
:10AD40000120BDE8F883012E03D1E8B221688862B2
:10AD50000EE0C5F307202168886242463946204646
:10AD600000F0E1F808B10120EBE7E8B22168886261
:10AD70003B46002240212046CDF8008000F062F8DA
:10AD800008B10120DDE70020DBE7000000200080A3
:10AD90002DE9F8430446894615461E46DDE9087844
:10ADA0001948F2B2C30249460090204600F02EF83E
:10ADB00042463946204600F0B6F810B10120BDE801
:10ADC000F883012E03D1E8B2216888620EE0C5F352
:10ADD00007202168886242463946204600F0A3F8E1
:10ADE00008B10120EBE7E8B2216888623B46002207
:10ADF00080212046CDF8008000F024F808B1012021
:10AE0000DDE70020DBE7000000200080F0B5059CB6
:10AE1000C1F309064FF47F0707EA02473E431E438A
:10AE2000264326F00045066876684FF4806707EAF7
:10AE3000545767F0FC2747F4C047BE432E430768CA
:10AE40007E60F0BD2DE9F04104460D4617461E46D2
:10AE5000DDF818802BE0424631462046FFF7C2FE5F
:10AE600010B10120BDE8F081701C00B3FDF75EF861
:10AE7000A0EB0800B04200D8CEB920688069284015
:10AE8000A84201D1012000E00020B8420FD1606C3F
:10AE900040F020006064202084F84100002084F805
:10AEA000420000BF84F8400000BF0120DAE72068BC
:10AEB00080692840A84201D1012000E00020B8426A
:10AEC000C9D00020CEE770B504460D46164622E0F4
:10AED000324629462046FFF785FE08B1012070BDA5
:10AEE000FDF724F8801BA84200D8A5B92068806926
:10AEF000C0F3401078B9606C40F0200060642020FE
:10AF000084F84100002084F8420000BF84F840002B
:10AF100000BF0120E3E720688069C0F340100028EB
:10AF2000D6D00020DBE770B504460D46164624E077
:10AF3000324629462046FFF755FE08B1012070BD74
:10AF4000681CD0B1FCF7F2FF801BA84200D8A5B95D
:10AF500020688069C0F3400078B9606C40F0200040
:10AF60006064202084F84100002084F8420000BF83
:10AF700084F8400000BF0120E1E720688069C0F349
:10AF800040000028D4D00020D9E70146886800F0AE
:10AF9000E0707047024602F1600000EB8103186820
:10AFA00000F0F840704701468868C0F3C000704761
:10AFB0000146886800F00100704701468868C0F3C8
:10AFC0000070704701468868C0F38000704770B514
:10AFD00000F11404C1F3406504EB85031C68C1F360
:10AFE00004560725B540AC43C1F3045502FA05F5F4
:10AFF0002C431C6070BD826822F0E0720A438260BC
:10B00000704710B500F1600404EB81031C6824F064
:10B01000004414431C6010BD426922F000420A4300
:10B020004261704700B589B0202101A8FBF73CF9C7
:10B030001B481C4908604FF4403048600021194803
:10B040008160C1600161416104218161002101775A
:10B05000417701210162002180F82410C16201635F
:10B0600080F83810C16380F84010FCF7ABF908B1E4
:10B07000FBF7F2FE0C48019006200290042003909A
:10B080007F200490042005900020069001A9054827
:10B09000FBF7E6FE08B1FBF7DFFE09B000BD0000DC
:10B0A00000040050E40800202000F01400B587B030
:10B0B000142102A8FBF7F8F800BF7548C06C40F0F7
:10B0C00004007349C8640846C06C00F00400019095
:10B0D00000BF00BF00BF0846C06C40F00800C86455
:10B0E0000846C06C00F00800019000BF00BF00BF20
:10B0F0000846C06C40F00100C8640846C06C00F00F
:10B100000100019000BF00BF00BF0846C06C40F0C6
:10B110000200C8640846C06C00F00200019000BF45
:10B1200000BF012249155B48FCF7FAFE012211031A
:10B130005948FCF7F5FE012220214FF09040FCF722
:10B14000EFFE012291035448FCF7EAFE002204219D
:10B150005248FCF7E5FE012211034FF09040FCF746
:10B16000DFFE0122D1024B48FCF7DAFE0122110377
:10B170004848FCF7D5FE4FF4006002900120039090
:10B180000490059002A94348FCF7D2FD4FF480508B
:10B190000290012003900490059002A93D48FCF71D
:10B1A000C7FD4FF480500290012003900490059059
:10B1B00002A94FF09040FCF7BBFD4FF48060029075
:10B1C0000120039004900020059002A93448FCF768
:10B1D000AFFD4FF4805002900120039000200490B6
:10B1E0000120059002A92C48FCF7A2FD4FF4007045
:10B1F000029001200390002004900120059002A9F4
:10B200002448FCF795FD4FF4804002900120039004
:10B21000002004900120059002A91F48FCF788FD3A
:10B220004FF48060029000200390049002A91A4815
:10B23000FCF77EFD04200290012003900020049082
:10B240000120059002A91548FCF772FD202002900C
:10B250000120039004900220059002A94FF0904035
:10B26000FCF766FD4020029000200390049002A9A4
:10B270000848FCF75DFD4FF48050029001200390D8
:10B280000490059002A90348FCF752FD07B000BDE9
:10B29000001002400008004800040048000C00486C
:10B2A0000018004810B50248FCF7AFFE10BD0000C2
:10B2B000CC1C002010B512481249086012484860A2
:10B2C0000021104881600121C160002101614161BC
:10B2D0008161C1610162FCF7B7FE08B1FBF7BCFDFB
:10B2E00000210848FCF728FE08B1FBF7B5FD002156
:10B2F0000448FCF756FE08B1FBF7AEFD10BD000098
:10B3000000580040CC1C0020F8A4A01010B5024842
:10B31000FCF77BFE10BD0000201D002010B5124878
:10B3200012490860124848600021104881600121DC
:10B33000C1600021016141618161C1610162FCF76D
:10B3400083FE08B1FBF788FD00210848FCF7F4FDF7
:10B3500008B1FBF781FD00210448FCF722FE08B18B
:10B36000FBF77AFD10BD000000780040201D002092
:10B370009D6F91201FB500BF1648806D40F01000F2
:10B38000144988650846806D00F01000009000BFE9
:10B3900000BF00200190029003900F480F49086001
:10B3A00042F2CF00486000210C4881601D21C1603D
:10B3B00000218161FEF7D1FA08B1FBF74DFD0020B5
:10B3C0000190039001A90548FEF760FA08B1FBF768
:10B3D00043FD1FBD0010024000100040E00B0020A4
:10B3E0001FB500BF1648806D40F0200014498865E5
:10B3F0000846806D00F02000009000BF00BF0020D4
:10B400000190029003900F480F49086042F2CF006C
:10B41000486000210C488160C721C1600021816122
:10B42000FEF79BFA08B1FBF717FD0020019003908F
:10B4300001A90548FEF72AFA08B1FBF70DFD1FBD6B
:10B4400000100240001400402C0C002010B50248EF
:10B45000FEF74AFE10BD0000840C002010B51C4809
:10B460001C4908604FF46140486000211948816020
:10B47000C16001610C21416100218161C1610162F2
:10B4800041620020134988620846FFF73DF808B181
:10B49000FBF7E2FC00210F48FEF7F5FD08B1FBF7D2
:10B4A000DBFC00210B48FEF7BFFD08B1FBF7D4FC25
:10B4B0000848FEF790FD08B1FBF7CEFC0548006890
:10B4C000006820F0200003490968086010BD0000F2
:10B4D00000380140840C002010B50248FEF704FE3D
:10B4E00010BD0000180D002010B51C481C49086054
:10B4F0004FF4E1304860002119488160C16001616A
:10B500000C21416100218161C16101624162002021
:10B51000134988620846FEF7F7FF08B1FBF79CFC69
:10B5200000210F48FEF7AFFD08B1FBF795FC0021A5
:10B530000B48FEF779FD08B1FBF78EFC0848FEF7D3
:10B540004AFD08B1FBF788FC05480068006840F038
:10B55000200003490968086010BD00000044004055
:10B56000180D002008B500BF1148806C40F00400A1
:10B570000F4988640846806C00F00400009000BF0A
:10B5800000BF00BF0846806C40F001008864084698
:10B59000806C00F00100009000BF00BF032200217A
:10B5A0000B20FDF755F90B20FDF742F908BD00000F
:10B5B0000010024010B50248FEF796FD10BD0000D5
:10B5C000AC0D002010B50446FFF7CCFF1A481B490C
:10B5D00008600846446000218160C16001610C215F
:10B5E000416100218161C161016241620020134912
:10B5F00088620846FEF788FF08B1FBF72DFC0021A2
:10B600000E48FEF740FD08B1FBF726FC00210B4871
:10B61000FEF70AFD08B1FBF71FFC0848FEF7DBFC4C
:10B6200008B1FBF719FC05480068006840F02000ED
:10B6300002490968086010BD00480040AC0D0020B8
:10B6400010B50948094908604FF46050486050211E
:10B65000064881607F21C16000210161FFF76FFA18
:10B6600008B1FBF7F9FB10BD002C0040B81C00200E
:10B6700000BFFEE700BFFEE77047000070B5164D43
:10B68000ED6805F00304144DED68C5F303156B1C5C
:10B69000022C0CD0032C09D1104DB5FBF3F50E4E46
:10B6A000F668C6F3062605FB06F10AE000BF0C4D5E
:10B6B000B5FBF3F5084EF668C6F3062605FB06F162
:10B6C00000BF00BF044DED68C5F341656D1C6A0005
:10B6D000B1FBF2F070BD00000010024000127A00D1
:10B6E0000024F40010B50024002204214FF0904003
:10B6F000FCF716FC9F2000F0CBF800F0A3F844EA1A
:10B70000004400F09FF844EA002400F09BF8044352
:10B71000012204214FF09040FCF702FC204610BDAE
:10B7200070B505460C461646002204214FF09040A5
:10B73000FCF7F6FB032000F0ABF8C4F3074000F081
:10B74000A7F8C4F3072000F0A3F8E0B200F0A0F8D7
:10B7500003E000F077F828706D1C301EA6F101019F
:10B760008EB2F6D1012204214FF09040FCF7D8FBB5
:10B7700070BD052000BF011EA0F1010290B2FAD1F8
:10B780007047000000B587B000BF2C48C06C40F087
:10B7900002002A49C8640846C06C00F0020001900B
:10B7A00000BF00BF00BF0846C06C40F00100C86485
:10B7B0000846C06C00F00100019000BF00BF1421DA
:10B7C00002A8FAF771FD0120029000200390049076
:10B7D000059002A91A48FCF7ABFA0220029001205A
:10B7E000039000200490059002A91548FCF7A0FAE8
:10B7F0008C2002900120039000200590049002A963
:10B800004FF09040FCF794FA012204214FF0904051
:10B81000FCF786FB012208214FF09040FCF780FBEB
:10B82000012202210648FCF77BFB012280214FF018
:10B830009040FCF775FB07B000BD0000001002400F
:10B840000004004870B5002400251AE000220821F9
:10B850004FF09040FCF764FBFFF78BFF6006040E8F
:10B8600001210A48FCF74AFB08B144F00104012217
:10B8700008214FF09040FCF753FBFFF77AFF681C5C
:10B88000C5B2082DE2DB204670BD00000004004870
:10B8900070B50446002523E0002208214FF09040B7
:10B8A000FCF73EFBFFF765FF04F0800028B10122A2
:10B8B00002210D48FCF734FB04E0002202210A4873
:10B8C000FCF72EFB6006040EFFF753FF0122082150
:10B8D0004FF09040FCF724FBFFF74BFF681CC5B20C
:10B8E000082DD9DB70BD000000040048704700003F
:10B8F00010B5FCF731FF03480088401C014908805F
:10B9000010BD0000A423002000B593B0382105A885
:10B91000FAF7CAFC14216846FAF7C6FC0020FCF7C7
:10B92000E9FF02200590C001089040200990022004
:10B930000C9002210D9101210E9115210F910221F0
:10B94000109111910421129105A8FDF7D1FC08B1C5
:10B95000FBF782FA0F200090032001900020029054
:10B960000390049004216846FDF7CCFA08B1FBF778
:10B9700073FA13B000BD00000348006840F4700083
:10B98000014908607047000088ED00E010B50248EA
:10B99000FEF7ADF810BD0000E00B002010B5024826
:10B9A000FEF7A5F810BD00002C0C002010B50268B1
:10B9B0002E4B98420ED0B0F1804F0BD02C4B9842BA
:10B9C00008D02C4B984205D02B4B984202D02B4BE1
:10B9D000984203D122F070024B681A43234B9842DD
:10B9E00017D0B0F1804F14D0214B984211D0214B89
:10B9F00098420ED0204B98420BD0214B984208D051
:10BA0000204B984205D0204B984202D01B4B9842C5
:10BA100003D122F44072CB681A4322F080034C69B0
:10BA200043EA040202608B68C3620B6883620F4BB7
:10BA300098420ED0104B98420BD0114B984208D030
:10BA4000104B984205D0104B984202D00B4B9842B5
:10BA500001D10B69036301234361036903F001030F
:10BA60001BB1036923F00103036110BD002C0140E9
:10BA70000004004000080040003401400050014034
:10BA800000400140004401400048014070B5456E4F
:10BA90002DB90125A0F86A50A0F868501CE00823D1
:10BAA00008240568AD68C5F342610568AD686A0F92
:10BAB0000A4DAD5C15FB04F5094EB65C95FBF6F539
:10BAC000A0F86A50054D6D5C15FB03F5044E765CDD
:10BAD00095FBF6F5A0F8685070BD0000183001081D
